:020000040800F2
:10000000182000208146000811440008134400080D
:1000100015440008174400081944000800000000B7
:100020000000000000000000000000001B44000869
:100030001D440008000000001F440008214400087F
:10004000994600089D460008A1460008A5460008FC
:10005000A9460008AD460008B1460008B5460008AC
:10006000B9460008BD460008C1460008BF44000864
:10007000C5460008C9460008CD460008D14600081C
:10008000D5460008D9460008DD460008E1460008CC
:10009000E5460008E9460008ED460008F14600087C
:1000A000F5460008F9460008FD460008014700082B
:1000B0000547000800000000000000000947000894
:1000C0000D47000800000000000000001147000874
:1000D0000000000015470008194700080000000054
:1000E0001D47000821470008000000000000000034
:1000F0000000000000000000000000000000000000
:10010000000000000000000000000000254700087B
:100110000000000000000000294700082D470008EB
:100120003147000835470008394700083D470008B7
:10013000414700080000000000000000000000002F
:1001400045470008494700084D4700085147000847
:1001500055470008594700085D47000861470008F7
:1001600065470008694700086D4700080000000067
:1001700071470008754700080000000000000000FB
:10018000794700087D47000881470008603000EB90
:100190008100006800F0F8407047603000EB81009B
:1001A000016821F000410A4302607047C06800F412
:1001B0004060401E8041C00F7047CB0D10B5143019
:1001C00003F004031818090D01F01F010368072448
:1001D0008C40A34302FA01F11943016010BDF8B548
:1001E00004460020002500900CB90120F2BD04F166
:1001F0005006706828B9204600F0D0FB0020B0609F
:10020000307021688868800004D58A68DFF80002B1
:1002100002408A6021688868C00012D48A68DFF8CA
:10022000F401024042F080528A60DFF81015DFF8D6
:1002300010250868B0FBF2F2521C5200009200F048
:10024000F2FA20688168C90008D4726842F010028E
:1002500072600125B16841F00101B1608368716885
:100260009B08CA0679D4D90777D4726822F48072C1
:1002700042F0020272608068C0070CD4DFF8C41438
:100280000868C00707D4DFF8C0140A68606822F461
:100290007C1202430A6004F13002607E5768E16814
:1002A00094F820C047EA4037A0680F430743BCF1E9
:1002B000010F47EA0C4703D1606A401E47EA4047F6
:1002C000A06A20B100F470700743E06A0743216818
:1002D000DFF87804D1F80CC000EA0C000743CF60C7
:1002E000DB072168886824D4000722D4CB68DFF8B4
:1002F0006004277E0340107843EA873343EA4003D3
:10030000CB60107A01280FD123681F69D16810696A
:100310006FF38A070F435169074390690F430743FF
:1003200047F001071F6104E020680169490849009E
:100330000161206901282068016B05D1E269090982
:10034000521E42EA011101E009090901016301207D
:10035000716860F30101716004E0706840F01000A2
:10036000706001252846F2BDF8B504460D462068A8
:1003700080684007164649D404F1500739780129AE
:1003800044D001203870204600F003FA01003AD131
:100390007968DFF8A804014041F4807179607868D9
:1003A000C10446BFB86820F006000020B86033469C
:1003B000E06C0FF2B541C162E06C0FF219510163BC
:1003C000E06C0FF2195141631C212268116000207A
:1003D00038702A462068416841F010014160206869
:1003E000C16841F00101C160206800F14001E06C8A
:1003F00000F036FC2268DFF8401493680B4043F0AD
:1004000004039360F2BD00213970F2BD0220F2BDF9
:10041000C0FFFF5FC0FFFF7FF8B50646002006F172
:1004200050050F46009000242978012901D10220AF
:10043000F2BD0120287030688168490700F175819C
:100440007968062910D2891E03290CD8DFE801F04B
:10045000020406080C2107E0122105E0182103E040
:100460004FF4807100E006218B09303003F00C035B
:100470003A68181801F01F01D0F800C01F238B4004
:10048000C2F384622CEA030302FA01F1194301600A
:10049000306882688168520720D409071ED4BA6880
:1004A0003968FFF78AFE3068C1683A69042A16D0B5
:1004B00060303B6800EB820CA648DCF8002002406C
:1004C00003F0F8431343C9087A69480000F00600B6
:1004D0008240134343F00043CCF8003076E0002123
:1004E000FFF754FE40033068214604D1FFF74EFE6B
:1004F000C0F3846003E0FFF749FE00F034F9396887
:100500004A030EBFC1F3846191FAA1F1B1FA81F1FE
:10051000884204D1306800220021FFF73EFE00F03F
:100520002FF9400304D100F02BF9C0F3846003E0FD
:1005300000F026F900F017F939684A030EBFC1F33D
:10054000846191FAA1F1B1FA81F1884204D1306855
:1005500000220121FFF721FE00F00EF9400304D133
:1005600000F00AF9C0F3846003E000F005F900F040
:10057000FAF839684A030EBFC1F3846191FAA1F118
:10058000B1FA81F1884204D1306800220221FFF7DC
:1005900004FE00F0EDF8400304D100F0E9F8C0F3E8
:1005A000846003E000F0E4F800F0DDF839684A0305
:1005B0000EBFC1F3846191FAA1F1B1FA81F18842D1
:1005C00004D1306800220321FFF7E7FD3168886815
:1005D000C00763D4FA683B68D1F8B0C0DFF860E2C6
:1005E00002F01802C3F312002EFA02F22CEA000005
:1005F00013400343C1F8B030F868DFF8481288426E
:100600004CD1386841030EBFC0F3846290FAA0F168
:10061000B1FA81F2521C012102F01F020A2A1BD2F8
:10062000420306D1C0F38462C0F38463C0F38460E4
:1006300001E000F091F8521C5B1C920603F01F03CE
:10064000401C02F0F842994000F01F00114300EBFB
:10065000400041EA00511DE0420306D1C0F384632B
:10066000C0F38462C0F3846001E000F075F85B1CA5
:10067000521C401C9B0602F01F0200F01F0003F0FA
:10068000F84391400A38194300EB400041EA005119
:1006900041F00071BA683068FFF78FFD3B68DFF802
:1006A000A801034246D02848DFF8A0710168DFF8AE
:1006B000A021BB4201F0E0711AD10B023AD4366896
:1006C000964237D100F060F841F4000101601B4808
:1006D0001B4A0168B1FBF2F2521C0C20424300920B
:1006E000009800281EBF0098401E0090F8D121E01D
:1006F000DFF86071BB4209D1CB011BD4366896424A
:1007000018D100F041F841F080710CE0DFF8487139
:10071000BB420FD14B020DD4366896420AD100F08D
:1007200033F841F48001016004E0686840F0200083
:1007300068600124002028702046F2BDB00F002020
:10074000400D0300080004500803045007C0F0FFE8
:10075000FDBFFFFF00F0FF0390FAA0F0B0FA80F2B7
:1007600013461046704790FAA0F0B0FA80F0704738
:1007700030680321FFF70ABD30680221FFF706BD8C
:1007800030680121FFF702BD026822F0E0721143D8
:1007900070477CB504460020009021688868C20735
:1007A00035D488686FF39E1000282DD18868224DBB
:1007B000284040F0010088602849086800020AD5F6
:1007C0002749284B0A68B2FBF3F35B1C0C20434318
:1007D000009300F028F800F0F3FA0646206801685C
:1007E000CA0714D48068C00705D4206881682940EE
:1007F00041F00101816000F0E3FA801B0328EDD392
:1008000020680168CA07E9D400F003F876BD00202B
:1008100076BD606D40F010006065A06D40F0010095
:10082000A0650120704702E00098401E00900098EB
:100830000028F9D170470000C0FFFF7FFEF1FFFFE5
:10084000FFFF070000007F4000000880000052C743
:1008500000000450000084CB010000800803045015
:10086000B00F0020400D030010B5846A616D11F0D7
:10087000500F22D1606D40F40070606521680868F7
:100880000207084606D5FFF791FC88B12068C168C9
:10089000880401E0C16888070AD4616D21F4807181
:1008A0006165606DC10403D4606D40F00100606556
:1008B0002046BDE8104000F089BA616DCA0604D533
:1008C0002046BDE8104000F082BAE16C4A6BBDE8FA
:1008D00010401047806A00F07BBA0000806A416DCA
:1008E00041F040014165816D41F00401816500F0F6
:1008F0006EBAF0B40246106895681318506803EB9E
:100900005004C00748BF4D44A3422DD013F8016BDB
:1009100016F0030004BF13F8010BC01C31090F29A6
:1009200007D113F8011B0F3103E013F8017B05F821
:10093000017B401EF9D10029E6D013F8010BC6F364
:100940008106032E08BF13F8016B00EB062040421E
:1009500028440026B71E8F421EBF10F8017B05F801
:10096000017B761CF6D1CFE7F0BC02F10C0070479A
:10097000814881B0816841F001018160816801F0A6
:10098000010100910099026842F080520260006803
:1009900000F080500090009801B0704730B59BB0D7
:1009A00000F096F800F0E2F82068744988425DD1C2
:1009B0004FF4804206924FF0805101220792089234
:1009C000189108220992072102220B920C920A9197
:1009D0004FF080720D9206A800F0FCF908B100F00B
:1009E0004AFD6748674D016841F4005101600268A3
:1009F00002F40052009200F03BF8036803F0010398
:100A000000930099026842F002020260102100681F
:100A100000F0020000900B2200F054F84FF09040DC
:100A200001A900F057FD01200B2101900291002245
:100A3000039201A9544800F04DFD00216960E9606E
:100A400080215248286029614FF48070002268613B
:100A50004FF40061AA60A961EA612A62284600F0A9
:100A60009BF808B100F007FDE564AC621BB030BD37
:100A70000099026842F001020260704710B586B02A
:100A800000F026F821684248814219D13C4841696A
:100A900041F480514161416901F480510091FFF7B7
:100AA000E7FF8221006800F001000090022200F0C0
:100AB00009F8032205210591049201A900F052F8DA
:100AC00006B010BD00980191029200210391704779
:100AD00004461422002101A800F0E8BD18B59BB01F
:100AE000044614220021684600F0E0FD00F03EF8C4
:100AF00020682849884232D10222002106920F91B3
:100B000006A800F067F908B100F0B5FC1C48C16800
:100B100041F40031C160C16801F4003105910599CB
:100B2000FFF7A7FF0421006800F0010005900222F2
:100B3000059800910192002102910322072104915E
:100B4000039200F00EF8022101914FF400400321BE
:100B50000090002203910491029200F002F81CB070
:100B600010BD69464FF0904000F0B4BC5422002103
:100B700006A800F09BBD0000581002400000045081
:100B80004C1002405C1B002000040048080002409A
:100B9000003001400044004070B508B9012070BD2C
:100BA0000268284D284CAA4200F1240308D22749A4
:100BB0008A181426B2FBF6F292001A62DC6108E091
:100BC00023498A181425B2FBF5F2920021491A62D2
:100BD000D96102225A7001680D688168C26806688E
:100BE0006FF30E150D430169154342690D43816989
:100BF0001543C2690D43016A15430D433560826890
:100C0000B2F5804F17D0DA690F21A2420CBF124A09
:100C1000124A146893F8205005F01C05A94024EAF4
:100C200001011160116893F82040406804F01C0431
:100C3000A040014311600020986101215970187093
:100C400070BD00000804024000000240F8FFFDBF34
:100C5000F8FBFDBF00040240A8000240A8040240C7
:100C6000F8B5044604F1240600253078012801D1A6
:100C70000220F2BD012030707778012F26D10220AA
:100C800070700027B7612068D0F800C04FEA5C0799
:100C90004FEA470CC0F800C0204600F07CF82168FD
:100CA000F06820B10A6842F00E020A6008E00868A5
:100CB00020F0040008602068016841F00A0101602A
:100CC0002068016841F00101016001E035700225F2
:100CD0002846F2BDF8B500F124010423CA6914685E
:100CE0000268156891F8206006F01C0603FA06F702
:100CF0003C4210D06F070ED51468A50603D41468C3
:100D000024F00404146000F03EF8C968002939D0CA
:100D1000BDE8F4400847022303FA06F73C4213D02B
:100D2000AF0711D51468A50605D4146824F00A0489
:100D3000146001224A7000F026F800220A708968C7
:100D400001B3BDE8F4400847082303FA06F634422D
:100D500018D02B0716D5146824F00E041460012255
:100D600091F82030CC6903F01C039A4062600123A3
:100D700001228A614B7000220A70096911B1BDE835
:100D8000F4400847F1BD91F82020CC6902F01C0224
:100D900093406360704770B590F84450066C01242E
:100DA00005F01C05AC40746004686360806810281E
:100DB00002D1A260E16070BDA160E26070BD000080
:100DC00001484068704700BFA40F0020704770477B
:100DD000704700002DE9FC47064600243068DFF824
:100DE00030730105A0461BD5F06B58B1B0F5000F6C
:100DF00003D0B0F5400F09D010E03A6842F48032D9
:100E00003A6004E0002100F0FCF804463CB9F96FB8
:100E1000F06B21F440010143F96701E00124A04691
:100E2000306881032AD5F86CC1004FF000090AD45C
:100E3000F86C40F08050F8644FF00109F86C00F055
:100E4000805000900098DFF8CC52286840F4807001
:100E50002860FFF7B5FF82462868C1055FD4FFF719
:100E6000AFFFA0EB0A000328F6D30324A046B9F194
:100E7000000F03D0F86C20F08050F8643078C10780
:100E800005D5FA6F306A920840EA8202FA67317833
:100E9000880705D5F96F706A21F00C010143F967E5
:100EA0003178880605D5F96FB06A21F440610143B5
:100EB000F9673168880505D5F96F706B21F4402119
:100EC0000143F9673168480505D5F96FB06B21F426
:100ED00040110143F9673178480605D5F96FF06A8A
:100EE00021F440510143F9673168C80505D5F96F10
:100EF000306B21F440310143F9673168880446D5ED
:100F0000F96F306C21F040610143F967306CB0F14A
:100F1000006F34D1386840F48010386037E0002C1E
:100F2000A4D1DFF8F441206810F440701CBF316D8B
:100F300088420BD02068216841F48031216020F480
:100F40004070226822F4803222602060C0070FD5F2
:100F5000FFF736FF05462068810709D4FFF730FF09
:100F6000401B41F289318842F5D34FF003087EE7F8
:100F70002168306D21F440710143216077E7B0F1C1
:100F8000806F04D100F03CF8010018BF8046306843
:100F9000410316D5FA6F706C22F040620243FA6783
:100FA000706CB0F1006F04D1386840F48010386084
:100FB00007E0B0F1806F04D100F022F8010018BF03
:100FC0008046306841040FD5FA6FB06C22F0405271
:100FD0000243FA67B16CB1F1805F05D1022100F0E4
:100FE00010F8010018BF80463068010405D5FA6F7B
:100FF000F06C22F080420243FA674046BDE8F68773
:101000000121301D05E04548016841F004010160FF
:1010100070472DE9F0410546404F28680C46F968B5
:10102000002611F0030F0DD0F96801F00301814291
:1010300037D1B0B3F8686968C0F30210401C884229
:1010400013D02EE0012804D02BD3032823D01ED3A5
:1010500027E03A68910724D5FA68696822F073029C
:101060001043491E40EA0110F860386820F08060A3
:101070003860FFF7A5FE80463868010113D5FFF7F9
:101080009FFEA0EB08000328F6D303263BE0396857
:101090004A05E1D405E039688A03DDD439684A039A
:1010A000DAD401262FE0A96844B93A691C48EB68F4
:1010B000024042EA012141EAC3610FE0012C3A6992
:1010C00006D12B69174800F031F841EA435105E099
:1010D0006B69154800F02AF841EA436139613868C4
:1010E00040F080603860FFF76BFE0446386801010D
:1010F00005D4FFF765FE001B0328F7D3C5E7386961
:10110000A969084338613046BDE8F081000000005D
:101110000C1002400070004090100240001002408D
:10112000FF80FF07FF809FFFFF80FFF902405B0801
:1011300042EA01215B1E70472DE9F84F86B000F0AE
:10114000BFFA00F028F91422002101A800F0AEFA3D
:10115000CB4CCC4E6068CC4D40F004006060002267
:10116000606800F0040000900098616841F001019F
:101170006160606800F0010000900098616841F0D3
:1011800002016160E021606800F0020000900098B8
:10119000304600F07BFA0820002101900291039173
:1011A000304601A900F096F9E021019101220021C9
:1011B00003910491029201A9304600F08BF9206856
:1011C00040F00100206000222168B04C01F00101D4
:1011D0000091002100980B2000F09CFA0B2000F0F9
:1011E000B7FA4FF48271A1604FF4E061A8486060E3
:1011F00021610020E06060610021A1612162A162A3
:101200004FF40070E0610721216300206062E0621A
:1012100060630821A163201D00F0C4FA08B10A2010
:1012200028804FF4E130E0660C209A49E067A1661F
:1012300004F18400002121676167A167C4F8801070
:1012400001604160816004F1680000F0F9FC08B1C0
:101250000A20288018220021684600F027FA8E4FC5
:101260008E48386000217960F9600820012178619A
:10127000396107F1300000220221BA603A83F96136
:1012800087F82020BA62FA62027042600272384621
:10129000FEF7A5FF08B10A212980062101917F21CF
:1012A0007F4A039100920021042205910292049248
:1012B00069463846FFF7B0F808B10A2129800C21A9
:1012C000784A0191009269463846FFF7A5F808B1BF
:1012D0000A20288001228021304600F0D7F900F052
:1012E0009EFF01F049F9062001F08FF900F09CF80B
:1012F0006D4E6E4FDFF8B881DFF8B891DFF8B8A116
:1013000004F1F00B1CE0607098F8000010B10021AF
:1013100088F80010387808B100213970307808B1A9
:1013200000213170654A107808B1002111702078D1
:1013300030B163480021018021702980614801702B
:101340009AF8000010B100218AF8001099F8000006
:101350000028D9D0002189F80010FFF731FDC4F82A
:10136000180101F049FCFFF72BFD6178D4F8182132
:101370005BF82110801A814204D2FFF721FDD4F8D6
:101380001811411A607802464BF8221009280CBF48
:101390000020401CB7E710B596B04422002105A8F4
:1013A00000F084F914220021684600F07FF94FF420
:1013B000007001F081FC344C08B10A20208001F05B
:1013C000B3FC4148016821F0180101601422059224
:1013D0000121702207910B910D92002101220C91A5
:1013E00010921192022110220F91129207210222D3
:1013F00013911492159205A801F09EFC08B10A20E1
:1014000020800F2100910322002102910391049179
:1014100001920321684601F0D9FE08B10A2020801C
:10142000FFF7F1FD16B010BD80B52848C16941F441
:101430008021C161C16921F48021C161026842F447
:1014400080120260816F21F040618167816F41F0FD
:1014500040618167C16B41F48021C163C16D41F47A
:101460008021C165022002F001F81948016821F0CD
:101470002C01016001BD04490A200880704700006A
:101480004810024000040048EE1B0020DC19002038
:101490000030014000440040F81A002000000450D1
:1014A0000002B0250080F03EDC1B0020DB1B00208A
:1014B000DA1B0020D91B0020D81B0020DD1B0020D8
:1014C000EC1B0020DE1B0020901002401010024098
:1014D000000806502DE9F84F00276F4A6F4B4FF078
:1014E0000F0805460E463CE0DFF8B4E1754514BF31
:1014F0004FF0070E4FF0020E0EFA01F141EA040E12
:10150000684941F82CE0C143D2F808C0746801EA88
:101510000C0CE40248BF40EA0C0CC2F808C0D2F838
:101520000CC0746801EA0C0CA40248BF40EA0C0C21
:10153000C2F80CC0D2F804C0746801EA0C0CA40311
:1015400048BF40EA0C0CC2F804C0D2F800C001EA5F
:101550000C0C7168C90348BF40EA0C0CC2F800C00B
:101560007F1C316831FA07F000F088800124BC400C
:1015700014EA0100F4D04FEA470C032101FA0CF100
:101580006FEA010E716801F00309B9F1010F1CBF88
:1015900001F00301022912D1A968D6F80C900EEAD5
:1015A000010109FA0CF949EA0101A960696821EA17
:1015B00004047168C1F30011B9400C436C60B900B8
:1015C000347904F00304032C21D0EC68D6F8089099
:1015D0000EEA040409FA0CF949EA0404EC603479CF
:1015E00004F00304022C12D1FC0805EB840401F082
:1015F0001C09D4F820A008FA09FB2AEA0B0AD6F83D
:1016000010B00BFA09F949EA0A09C4F820902C68CD
:101610000EEA040E347904F0030404FA0CF444EAEC
:101620000E0CC5F800C0746814F4403F98D0D3F88D
:1016300000C01C4C4CF0010CC3F800C04FEA970CE2
:10164000D3F800E00EF0010ECDF800E001F00C013F
:10165000DDF800E054F82CE008FA01F42EEA040466
:10166000B5F1904F08BF4FF0000E06D0DFF838E01C
:1016700075457FF439AF4FF0010E3DE7BDE8F18FBE
:101680000069084018BF0120C0B270470AB18161EB
:101690007047816270470000000401406010024002
:1016A00000080048080001400004004810B5044646
:1016B00010460A460146204601F0ECFE204610BDC9
:1016C000032010B500F019F8002001F017FF0024E6
:1016D000002814BF0124FFF74BF9204610BD00007D
:1016E0000901020002D4284881547047274B02F0B8
:1016F0000F021A4402F8041C7047254B19684FF674
:10170000FF020002114000F4E06008432149084351
:101710001860704770B51E4B1C68C4F30223012487
:10172000C3F10705052D2EBF0F2504FA05F56D1E23
:101730001E1D072E34BF0023DB1E2940994004FAEA
:1017400003F3BDE870405B1E1A401143C8E7000078
:10175000010007D4012200F01F010F4B8A4040090D
:1017600043F820207047401EB0F1807F01D3012054
:1017700070470A490A4A48600023F02010708B60C5
:10178000072008600020704700E400E018ED00E04A
:101790000CED00E00000FA0500E100E010E000E0E0
:1017A00023ED00E038B5040001D1012032BD606AAC
:1017B00030B96068B0F5827F05D00021E16102E0B8
:1017C0000020206160610020A06204F15C0568785F
:1017D00020B9002129702046FFF750F902206870D7
:1017E00000F002FAE168B1F5E06F04D90020B1F52C
:1017F000706F03D104E04FF4805001D00021A1624A
:101800006168A268237C01F4827102F404421143EE
:10181000227D03F002031943A36902F00102114380
:10182000227F03F40073194394F8203002F0380249
:101830001143A26A03F080031943236802F40052A3
:1018400011431960A16994F8242094F83430090CEC
:1018500001F0040102F010021143E26803F00803F2
:10186000194302F470621143084321684860002064
:1018700068600121697032BD2DE9F843054605F124
:1018800044060027307E0C4691469846012808BF42
:10189000022000F0A58001203076FFF791FA717EDA
:1018A000012918BF022740F09880002C18BFB9F119
:1018B000000F00F08E80032171760023F361AC638A
:1018C000A5F83C90A5F83E902B64338000247480EA
:1018D000F360B360A968B1F5004F09D129680B68BE
:1018E00023F040030B6029680C6844F480440C60CA
:1018F00029680B685C0603D40B6843F040030B6057
:1019000040F20172EB6869689342444621D3002992
:1019100018BFB9F1010F00F072F8804604E0A96B1E
:101920000A88C26000F064F8E88F00283DD028687B
:1019300081688A07F3D4FFF743FAA0EB0800A042BE
:1019400004D314F1010FEFD0032744E0002CEBD1B6
:10195000FAE7002918BFB9F1010F00F05CF88046E2
:1019600007E00988C160A86B811CA963E88F811E0C
:10197000E987E88FC8B1286881688A0708D5A96B0C
:10198000EA8F022AEDD20978017300F02BF8EFE715
:10199000FFF716FAA0EB0800A04203D314F1010FE1
:1019A000E7D0D1E7002CE4D1CEE7424621462846D5
:1019B00000F020F908B12020F061A86838B90021B2
:1019C00000912968CA68009289680091009AF069BC
:1019D00008B1012701E001207076002131763846F8
:1019E000BDE8F283A86B411CA963E88F411E7047D4
:1019F000A86B811CA963E88F411EE987704709D154
:101A0000A96B2B680A88DA60A96B8A1CAA63E98F24
:101A10004A1EEA87704715D1A96B2A68EB8F022B03
:101A200008D30988D160AA6B911CA963EA8F911E23
:101A3000E98770470B781373A96B4A1CAA63E98F77
:101A40004A1EEA8770472DE9F843089C05460E4672
:101A500090461F46FFF7B4F9381A2418FFF7B0F97B
:101A60008146DFF8D80101684901090D6143009101
:101A700005E0009800B900240098401E00902868F6
:101A800081683140B1420CBF01200020404532D076
:101A900017F1010FF3D0FFF793F9A0EB0900A04273
:101AA00001D2002CE5D12868416821F0E0014160B5
:101AB0006868B0F5827F0BD1A868B0F5004F18BFF9
:101AC000B0F5806F04D12868016821F04001016001
:101AD000A86AB0F5005F09D12868016821F40051B7
:101AE00001602868026842F40052026005F15C005F
:101AF00000F06EF800E00020BDE8F2832DE9FC471D
:101B000006460A9D00208DF800000F4614469846B0
:101B1000FFF756F9A8EB00002D18FFF751F98146A1
:101B20003068DFF818110A6800F10C0A23204243DC
:101B3000120D6A43019205E0019800B90025019851
:101B4000401E0190306881683940A1423DD0B7F510
:101B5000C06F08BF002C05D19AF800008DF8000076
:101B60009DF8001018F1010FECD0FFF729F9A0EB58
:101B70000900A84201D2002DDED13068416821F071
:101B8000E00141607068B0F5827F0BD1B068B0F5BC
:101B9000004F18BFB0F5806F04D13068016821F0A4
:101BA00040010160B06AB0F5005F09D1306801689A
:101BB00021F4005101603068026842F40052026072
:101BC00006F15C0000F004F800E00020BDE8F687B4
:101BD00001214170002202700320704700962B46BD
:101BE0000022802120462EE72068016821F0400174
:101BF000016070477CB50D461646044600962B469C
:101C000000224FF4C051FFF779FF38B9FFF7E6FF24
:101C100020B900962B4600F00CF808B100F001F84E
:101C200076BD206E40F020002066032070470090B3
:101C3000642300224FF4C06120465FE7B00F00200C
:101C400038B5040001D1012032BD04F1780568687F
:101C500008B900F017F800F01AF808B100F031F8F0
:101C600000F02CF8012804D000F004F821F02A013B
:101C700016E032BD2068416821F49041416020683F
:101C800081687047002129702046FEF727BF242075
:101C9000686020680168490849000160606A70470F
:101CA000816000F004F8BDE8324000F068B92068B7
:101CB000016841F00101016020467047204600F0B4
:101CC00019B8204600F0F8B8284600F0A5B92868F1
:101CD00000F1080151E8001F490800F1080349001C
:101CE00043E8001000287047286850E8001F0246AB
:101CF00070470000F8B50446DFF814042268136842
:101D0000A168034020690B4361690343E0690B4309
:101D10000343136000255168E06821F440510143FA
:101D20005160A36963498A421CBF206A03439668D5
:101D3000DFF8E073DFF8E00326F4306633439360A6
:101D4000BA424FF40043DFF8D4632ED1366806F070
:101D50000306032E37D8DFE806F00262606401272D
:101D6000E169B1F5004F4FF6F0767AD147B1012F16
:101D70006FD0022F08D0042F6ED0082F6FD092E0C2
:101D800001F005FB00280FD061684A0802EB400211
:101D9000B2FBF1F0A0F11001B142F0D20640C0F365
:101DA000420006432068C6607EE0DFF87473BA42E2
:101DB00021D1366816F00C062DD0042E2FD0082E17
:101DC0002BD00C2E2DD010278A42C9D137B1022F2B
:101DD00008D0042F27D0082F28D064E001F0D7FACC
:101DE000002861D0626802EB420188425BD3130392
:101DF00083421DD257E08A42E5D1366816F4406628
:101E000009D0B6F5806F0AD0B6F5006F05D0B6F5EB
:101E1000406F06D0D7E70027D6E70227D4E704278C
:101E2000D2E70827D0E701F069FAD9E71846D9E7E1
:101E3000010E560816EB00206941002301F080FBDB
:101E4000A0F54071DFF8DC2291422CD22168C860F5
:101E50002AE001F0A4FA95E701F050FA92E718465B
:101E600092E747B1012F16D0022F07D0042F15D0CB
:101E7000082F16D017E001F08AFAA8B1616800EBCC
:101E80005100B0FBF1F0A0F11001B1420BD2226879
:101E900080B2D06008E001F082FAEEE701F02EFA9D
:101EA000EBE71846EAE701250020A066E066284631
:101EB000F2BD00000080004090F824100A0706D50B
:101EC00002685368416B23F400430B43536090F85E
:101ED0002410CA0706D502685368816A23F40033C8
:101EE0000B43536090F824108A0706D502685368A4
:101EF000C16A23F480330B43536090F824104A07DF
:101F000006D502685368016B23F480230B435360AA
:101F100090F82410CA0606D502689368816B23F4F2
:101F200080530B43936090F824108A0606D502680C
:101F30009368C16B23F400530B43936090F8241013
:101F40004A0610D502685368016C23F480130B43D2
:101F50005360036CB3F5801F05D15368416C23F4C3
:101F6000C0030B43536090F824100A0606D501689D
:101F70004A68806C22F4002202434A607047F8B538
:101F8000054605F178040020E0606FF07E47FEF71B
:101F900017FF0646286801680A0711D500973346DF
:101FA00000224FF40011FFF78FFE48B1FFF79CFEAF
:101FB00021F0800100F02CF8F8D12020606017E0BB
:101FC000286801684A0717D50097334600224FF466
:101FD0008001FFF779FE78B1FFF786FE21F490715A
:101FE00000F016F8F8D1FFF772FEFCD12020A060B7
:101FF000002121700320F2BD202060602021A1601B
:1020000000202866002169662070F2BD21F4F0717D
:1020100042E80010002870472DE9F041069C054673
:102020000E4690461F462868C1693140B1420CBF38
:1020300001200020404533D114F1010FF3D0FEF709
:10204000BFFEC01B844200D314B90320BDE8F08159
:10205000286801684A07E6D5C169080704D42968D9
:10206000C8690105DFD50DE02A68082010622846FE
:1020700000F018F805F178000821C1600022027014
:102080000120E3E729684FF400600862284600F069
:1020900009F805F178002021C16000220270D4E720
:1020A0000020D3E710B500F00EF8FCD100F015F8D1
:1020B000FCD1016E00F01EF82021C0F88010002233
:1020C0000266826610BD016851E8002F0B4622F4BB
:1020D000907243E8002100297047016801F108026D
:1020E00052E8002F520801F10804520044E8002190
:1020F00000297047012909D1026852E8002F0368BE
:1021000022F0100243E800210029F5D170470000B9
:10211000F369FFEF003801400024F400881002400A
:102120000044004000FD0F002DE9F04104460D463B
:10213000164698462A2000F05DF8DFF89C73387D3B
:102140003870A41C7C70B870AD1CDFF89043FD7033
:102150004FF47A73042239462046FFF78DFB2B207B
:1021600000F048F8387D3870761C7E70B8703946BB
:1021700008F10100F8704FF47A732046BDE8F04191
:102180000422FFF779BB2DE9F04106460F462C20CB
:1021900000F030F8300C310A3C46C82CBABFFFB210
:1021A00007EB47074FF416770022CD4D05E0A85402
:1021B000521CA954521CAE54521CBA42F7D3C82028
:1021C000002694FBF0F7DFF8148306E04FF4167254
:1021D00029464046FFF750FB761CF0B2B8424FF458
:1021E0007A73F3DBC82000FB174404EB4404A2B26B
:1021F0002946E7E011B5BB4C81B0002240212046C2
:10220000FFF744FA4FF47A73012201A9B348FFF7AC
:1022100033FB012240212046FFF738FA13BD80B579
:1022200000222021AF48FFF731FA0120FFF7E2FF3B
:10223000962001F01BF91120FFF7DCFF962001F03A
:1022400015F92920FFF7D6FF3620FFF7D3FFC0206E
:102250008DF800004FF47A73012269469F48FFF71A
:102260000BFB01BDF8B514461D466F180A46069EC5
:102270007B1E2718791EDBB2C9B2FFF755FF14FB8E
:1022800005F13046BDE8F4407DE710B50B46144635
:102290001A460146FFF748FF2046BDE810400121DD
:1022A00071E72DE9F84304460E4635461846411BB2
:1022B0004CBFF71A9F1BA1461146B1EB09084CBF52
:1022C000A4EB020CA2EB040C0FFA8CFC3FB2DDF87D
:1022D0002080BC451EDA9E42B8BF4F4603DB0F4646
:1022E0000646494628463B46344689460546A542A9
:1022F0002DDB4246E1B2D8B2FFF7C7FF601C801B5E
:10230000A9EB07014843A91B90FBF1F3641CDB19FF
:1023100024B2ECE7944203DA4F468946054601E0D1
:102320000F46064630463C460FE0C1B24246E0B298
:10233000FFF7ABFF611CA81BC91B4843A9EB0701B2
:1023400090FBF1F0641C801924B2A145EDDABDE8E0
:10235000F1832DE9F04106460D462C20FFF74AFF98
:10236000002000215E4C0FE056F82020120C625431
:10237000491C56F82020120A6254491C56F82020A5
:102380006254401C80B2491C05EB45029142EBD3DC
:10239000C820002695FBF0F7DFF8408106E04FF4F7
:1023A000167221464046FFF767FA761CF0B2B84233
:1023B0004FF47A73F3DBC82000FB175505EB450596
:1023C000AAB221464046BDE8F041FFF755BA2DE9D3
:1023D000FE4F0646444F317A0291019196F814B0AF
:1023E0001DE072888DF800200BFB05089DF8004069
:1023F00009194B1EA8F10101DBB22246C9B2C0B2D5
:10240000FFF792FE717D15FB0BF010FB01F1B06937
:1024100089B2FFF79EFF0198451B2DB201950198E7
:10242000002856DD707DC8211BFB00F091FBF0F504
:102430000199A942BABF01A80578EDB2029A0198A4
:102440003188101A0BFB0010C0B2002401E0641C9C
:10245000E4B2717D8C42C4DA4FF0000802E00098CB
:1024600008F10108A845F2DADDF808C0019973689F
:10247000F269ACEB010CC44496F8211013F80C304F
:1024800011FB03434FF00009D15C397000900AE062
:102490000098718832690BFB08006118484489B2C2
:1024A00080B290470CE0D945D9DA0BFB05FA0BFB5B
:1024B00008F004FB0A0A3878C107CA44E8D5F06876
:1024C000B16941F82A0009F10109387840083870EB
:1024D000E9E7BDE8F78F0000F01B0020E0190020BD
:1024E0008417002000040048061C002002463248E1
:1024F0000178012900D07047F8B5002303702F4BF5
:102500001C78596803F10C05204645F8201003EBB0
:10251000800099680162042C08BF002402D0641C6A
:10252000E0B208B90121597000205978A1B1002109
:10253000002542F8201003F10C0600EB800757FA43
:1025400085F756F8276031446D1CEEB2052EF0DB9E
:102550000525B1FBF5F104E003F10801E6B251F8FD
:10256000261042F82010401C0128DEDD1C70191DC9
:10257000BDE8F840022201E0022211491148FDF7AE
:10258000F3BE38B50446104D2846FFF7AFFF296863
:10259000A1F5FA61218009B26868A0F5FA6063319B
:1025A0006080C7293CBF0021218000B26330C7286A
:1025B0003CBF0020608031BD101C0020A41B002007
:1025C000A81B0020F81A0020081C002070B5002469
:1025D000DFF84C560026B1B2A0B201F035F8B1B226
:1025E00045F82100761CB0B2A028F4DB9F2300221E
:1025F000E1B2E0B2FFF798FDA0212846FFF7A9FE5F
:10260000641CA0B28028E5DB70BD2DE9F0433223C5
:102610000146DFF810261380538002F5076400207E
:10262000DFF804369081107618719C6001201874D0
:102630001A6002F6840041F2883404804480012646
:102640001424B14604FB06F024271D18774302EB3F
:10265000070C03F10408C5F800C008F8009002F167
:10266000180C0CF8079006EB4607174407F6CD0E3A
:1026700003F10C07761C47F800E00020142E2874A4
:10268000E0DD0027FDB265435E59B6F90C00B0F5F8
:102690009E7F08DA4FF02D0C90FBFCFC4FF02D0EC6
:1026A0000EFB1C0008B10020B0814FF05A0E30889C
:1026B000F0814FF05A0870883082B6F90C00F08231
:1026C00084469CFBFEFE08FB1ECCBCF1000F18BF2D
:1026D000CC4603F1040E5A281EF805800CEB480C7A
:1026E0005FFA8CFC02EB4C0C0CF6880EBEF800C0B6
:1026F000BEF81CE018BF872806D0B0F5877F1CBF46
:1027000040F23B18404502D17046E04601E0604689
:10271000F0467081A6F804C0A6F806E0A6F8088086
:102720007F1C7089B08230897082181D455D02EB74
:102730008505D5F8C808357EF06102EB8500FDB24D
:10274000D0F8C0083062A9429CD2BDE8F08302688C
:10275000017939B9DFF8D414B1F92E20B1F92C1070
:1027600000F0F3BF012908BF01F0A3B850889428F6
:102770000CBF0020401C5080108874280CBF002023
:10278000401C1080704770B501790468012915D18B
:10279000C0684178042908BF002102D0491CCAB290
:1027A0002AB982780B2A0CBF0022521C8270417019
:1027B000236A82785968186801F068F8DFF8605475
:1027C0002146284601F0B9F9208862882189668966
:1027D000891836184B1E711EDBB2D2B2C9B2C0B214
:1027E000FFF7A2FC6089218910FB01F12846BDE8B2
:1027F000704089B2FFF7ADBD006801884288C18191
:1028000002828189C182704780B50821DFF82004E7
:10281000FEF736FFDFF81C14CA78521E924100F012
:10282000010313EAD27F1CBF01220A70C87001BDE8
:1028300070B5DFF8F843228021726380491EDFF80B
:10284000F82362600A2609E000B20A2590FBF5F53C
:1028500006FB15003030D054491E28460BB2002B21
:10286000F2D52046BDE87040FFF7B1BD10B5DFF8E6
:10287000BC03C48C818CA14207D0848420B2BDE803
:10288000104001236A220321D2E710BDF8B50026CB
:10289000DFF8A843875F257817F1010F06D10025DF
:1028A000018001266D1C25704EB9F1BD632D03D149
:1028B000791E0180012600E0F4DB0025F3E7B0F982
:1028C000000001B0BDE8F0400221B1E71CB5FFF700
:1028D0007DFED64C0C20208032210FF270306060DB
:1028E0000F2200F068F8392020805521C1A0022273
:1028F00000F060F81920208064210FF260306060E1
:102900000B2200F058F8002000907F237A2200F07C
:102910001EF80020009089237A22892100F018F8FF
:10292000002000908923552200F011F8002000902B
:1029300084237F227F217A20FFF7B3FC00200090C0
:1029400084237F2289217A20FFF7ABFC13BD7F21EE
:102950005520FFF7A6BC00001CB5FFF737FEB34CAF
:102960000120208060800522BFA060602272204686
:10297000FFF72DFD40202080012100BFBCA060603A
:10298000062200F018F840F2E730A0840021E1842C
:102990001520FFF73AFE0020009001238022082135
:1029A000FFF760FC4FF0FF30A54A20850021117031
:1029B00013BD0E226060618022722046FFF707BDC2
:1029C0002DE9F0418CB008A8ADA100BFB0A50F2241
:1029D00001F028FA95E8C00105AC01A884E8C0011F
:1029E000AEA1924C0F2201F01DFA964800903C23B4
:1029F000642237210E20FFF735FC0020009037239A
:102A0000722200F049F80020009073237222732193
:102A100000F043F80020009073230E2200F03CF8F1
:102A2000002000907323722237217220FFF739FCB7
:102A300010202080392108A8FFF7BBFF102020803C
:102A4000422105A80B22FFF7B5FF1020208054215A
:102A500001A8FFF7AEFF10202080662104F13000AE
:102A60000C22FFF7A7FFE08C618D814238BF014641
:102A700061854B231022032100B2FFF7D9FEB4F980
:102A80002A005D2310220321FFF7D2FE4FF0FF3111
:102A900021850CB0BDE8F08137210E20FFF701BC85
:102AA00070B5FFF7B1FE634C207820B10021022001
:102AB0002170607070BD20793128ACBF0020401CAF
:102AC00020712079A0B9A0685F4DA84208BF0025F9
:102AD0005720564E3080812167A07060052271809A
:102AE0003272F5603046FFF772FC0020F060A5609E
:102AF00070BD2DE9F041002414254B4EE0B268432F
:102B00003044FFF724FE641CE0B23C28F6DBDFF81B
:102B10001C81002705FB07F034182179012902BF29
:102B200006F11002105C01280CD13146204601F05C
:102B3000F5F838B1B8F82600401CA8F82600204661
:102B400000F001FF7F1C3C2FE4DB002400F02AF89A
:102B500010B17018FFF717FE641CE0B23C28F5DBDB
:102B600000F045FF002400F01DF810B17018FFF7C9
:102B700043FE641CE0B23C28F5DB08F12C00FFF7B3
:102B800000FDFFF773FE012324223C2108F12800F9
:102B9000FFF77CFEB8F9280010B9264803214170E0
:102BA000BDE8F081E1B2694306F11002505C704764
:102BB00010B51E4C66235D22052104F12800FFF7A5
:102BC00065FEB4F9280010B91A480021417010BD03
:102BD0001848417882788A4209D0817021B102294F
:102BE00003D0032902D0704770E6B5E6E8E67047E7
:102BF000000000004259000080B5FFF7E9FF0D48D2
:102C0000417821B1022905D0032906D001BDBDE8D4
:102C1000014045E7BDE801406BE7BDE80140C7E77B
:102C200064140020C8040020B40F00208804002091
:102C300000040048D40D0020E00D0020071C0020F7
:102C4000051C0020FCFCFC0000FCFC00524F56451B
:102C50005220434F494E2044415348004953484174
:102C60004E204B554D41520054696D653A000000AD
:102C700053636F72653A0000535441525400000090
:102C800047616D652046696E69736865642100005F
:102C9000596F75722053636F72653A0048696768AF
:102CA0006573742053636F72653A0000DFF86C003F
:102CB000006800F4C060704710B5DFF86010B0F530
:102CC000007F086800F4C0601DD1B0F5007F22D0FD
:102CD0000A68DFF84C30012060F34A220A60322093
:102CE0001C68DFF840204443B4FBF2F0401C00E0D5
:102CF000401E4A69530501D50028F9D148694105AC
:102D000009D5032010BDB0F5806F04D00A680220F9
:102D100060F34A220A60002010BD000000700040ED
:102D2000B00F002040420F000248016841F480715A
:102D300001607047007000402DE9FC47050066D037
:102D4000DFF8E876DFF8F866BC68D7F80C802878FA
:102D5000C10604F00C0408F0030848D524B10C2C7B
:102D600008BFB8F1010F2CD13868810702D5A869D6
:102D700000284CD0396808074EBF396871680909C6
:102D8000286A01F0F001814206D200F014FB00280D
:102D90003DD100F003FA07E000F000FA24B9286AF8
:102DA00000F009FB002832D100F0A8FABA6800F060
:102DB00094FADFF88406006800F0A0FB010016D04A
:102DC000E6E1A86928B3396841F001013960FDF7EF
:102DD000F7FF81463868810707D4FDF7F1FFA0EBC4
:102DE00009000328F6D30320D2E100F0D7F92878B0
:102DF000C10755D5082C04D00C2C08BFB8F1030F1F
:102E000017D1386881034BD56868002848D1012064
:102E1000BEE138684008400000F0D5F981463868C6
:102E20008107E4D5FDF7CCFFA0EB09000328F6D31A
:102E3000D9E76868B0F5803F04D1386840F4803045
:102E4000386011E0B0F5A02F386806D140F480203A
:102E50003860396841F4803105E020F48030386012
:102E6000396821F480213960686860B1FDF7A8FFF6
:102E700081463868810313D4FDF7A2FFA0EB090057
:102E80006528F6D3AFE7FDF79BFF814638688103DD
:102E900006D5FDF795FFA0EB09006528F6D3A2E75C
:102EA0002878810713D5042C04D00C2C08BFB8F166
:102EB000020F22D13868410502D5E8680028A6D063
:102EC0007868296920F0F85040EA01607860287835
:102ED000010742D56869002870682FD040F00100D2
:102EE0007060FDF76DFF80467068810735D4FDF78F
:102EF00067FF00F04FF9F7D375E7E86878B13968F4
:102F000041F480713960FDF75BFF80463868410508
:102F1000D6D4FDF755FF00F03DF9F7D363E73868E5
:102F200020F4807000F04FF9804638684105CED516
:102F3000FDF746FF00F02EF9F7D354E740084000B4
:102F40007060FDF73DFF80467068810705D5FDF78D
:102F500037FF00F01FF9F7D345E72878410767D519
:102F6000B86DC1004FF000080AD4B86D40F0805031
:102F7000B8654FF00108B86D00F0805000900098DF
:102F8000DFF8C094D9F80000C10513D4D9F80000C7
:102F900040F48070C9F80000FDF712FF8246D9F8AE
:102FA0000000C10506D4FDF70BFFA0EB0A000328C3
:102FB000F5D318E7A868012804D1306840F0010073
:102FC000306010E00528306806D140F00400306021
:102FD000316841F0010105E040084000306031688F
:102FE00021F004013160A86841F2893960B1FDF730
:102FF000E7FE82463068810713D4FDF7E1FEA0EBBF
:103000000A004845F6D3EEE6FDF7DAFE8246306860
:10301000810706D5FDF7D4FEA0EB0A004845F6D39C
:10302000E1E6B8F1000F03D0B86D20F08050B8652C
:103030002878810621D5686A0028B0680ED040F053
:103040000100B060FDF7BCFE8046B068810714D473
:10305000FDF7B6FE00F09EF8F7D3C4E64008400046
:10306000B060FDF7ADFE8046B068810705D5FDF77D
:10307000A7FE00F08FF8F7D3B5E6A86A002800F0A5
:10308000868002286FD1F868EA6A00F00301914255
:1030900001BF00F0700110312A6BB1EB021F1DD18E
:1030A0006A6B00F4FE41B1EB022F02BF00F07841E1
:1030B000AA6BB1EBC26F11D1EA6B00F4C00101F54C
:1030C00000115208B1EB425F08D1296C00F0C060DA
:1030D00000F100704908B0EB416F40D00C2C43D098
:1030E000386841013FF593AE00F06AF8044638684D
:1030F000810105D5FDF764FE001B0328F7D372E6B6
:10310000F868DFF84413EA6A0840296B1043491E47
:1031100040EA0110EA6B696B520840EA0120296C11
:10312000521E490840EA4250491E40EA4160A96BDC
:1031300040EAC160F860386840F080703860F96833
:1031400041F08071F960FDF73BFE0446386881016B
:103150001DD4FDF735FE001B0328F7D343E638687E
:10316000810114D4E7E70C2C3FF451AE00F028F8AD
:1031700004463868810105D5FDF722FE001B0328AF
:10318000F7D330E6F868DFF8C4120840F860002092
:10319000BDE8F687A0EB080003287047386840F0C8
:1031A000080038603968286A21F0F001014339606D
:1031B0007968E86921F47F4141EA0021796070472C
:1031C000386820F080703860FDF7FABD2DE9F041D5
:1031D0000400884655D0DFF87862306800F00700B8
:1031E000404502D200F06FF84BD12078DFF83C5216
:1031F000810706D5A068A96801F0F001814200F0BE
:1032000076F82078C1072AD56068032802D129689A
:103210008A0108E0022802D129688A0303E0002815
:10322000296802D18A0702D42BE04A0529D5A9686A
:10323000890840EA8100A860FDF7C2FD0746A8683A
:10324000616800F00C00B0EB810F08D0FDF7B8FD0D
:10325000C01B41F289318842F1D3032031E020784C
:10326000810706D5A068A96801F0F001884200F046
:103270003EF8306800F00700804504D200F023F8E3
:1032800001D001201DE02078410705D5AA68E0683B
:1032900022F4E0620243AA602178080706D5A968F3
:1032A000206921F4605141EAC001A96000F026F8CC
:1032B000AA6800F012F8BDE8F0415F48006800F02D
:1032C0001DB9BDE8F0813168C90848EAC101316023
:1032D000306800F00700404570475E49C2F30312B2
:1032E000895C534A01F01F01C8401060704704D246
:1032F000A96821F0F0010843A860704770B54B4AF7
:103300004C4B9068D6680025002110F00C0006F0A8
:103310000306524C03D00C2812D1012E1AD1156885
:103320002E0704D4454D2E68C6F3032502E0156828
:10333000C5F303154A4E56F8255048B9294624E0EE
:10334000042808BF214620D008281ED119461CE0B9
:103350000C281AD1D06800F00300022803D00328FB
:1033600008BF1D4600E02546D168D068D268C0F38A
:1033700006204543C1F30210C2F34161401C491CC1
:10338000B5FBF0F04900B0FBF1F1084670BD2848EC
:10339000314A006813683349C3F3022206E0244827
:1033A0002D4A006813682F49C3F3C222895C01F0DB
:1033B0001F01C84070477CB52B4E0546306800247D
:1033C000C10002D5FFF772FC0EE0306840F080507B
:1033D0003060316801F0805100910098FFF766FC81
:1033E000316821F080513160B0F5007F04D1802D2B
:1033F0000CD9A12D09D304E0802D88BF032405D862
:1034000001D1022402E0702D00D10124104801688E
:10341000C90844EAC1010160006800F00700A04249
:1034200001D0012076BD002076BD000000100240D2
:10343000B00F002000127A00AC0F00209410024060
:1034400090100240007000408C809D01FCFFEEFE59
:103450000020024038450008081002400024F40013
:1034600080450008904600085810024038B50446D0
:10347000FDF7A6FC14F1010F054602D004480178BF
:103480006418FDF79DFC401BA042FAD331BD00BF7C
:10349000A40F002062F30F2262F31F42401810F0C5
:1034A000030308D0C91A1FD3DB0748BF00F8012D5A
:1034B00028BF20F8022D130030B4144615461039E9
:1034C00028BF20E93C00FAD8490728BF20E90C00B2
:1034D00048BF40F8042D890028BF20F8022D48BFBE
:1034E00000F8012D30BC7047C91818BF00F8012D35
:1034F000CB0728BF00F8012D7047000070B50E4EB5
:10350000044630780025A0B14FF47A710B4AB1FB24
:10351000F0F11068B0FBF1F0FEF725F948B9102C76
:1035200007D2002221464FF0FF30FEF7F3F8B460D7
:1035300000E00125284670BDA40F0020B00F002038
:10354000D3BBD9B1B2F5803F5BD2022A1ED98C46DB
:10355000B1FBF2F102FB11C31B0443EA1043B3FBBE
:10356000F2FC02FB1C3380B240EA0343B3FBF2F0EF
:1035700002FB103240EA0C4000237047022A05D9B2
:103580008446B0FBF2F002FB10C270474AB105D18D
:1035900000F0010249085FEA300070470022002372
:1035A000704700F04BBC0B00020000210020704768
:1035B000F7D3002200237047904271EB030CF2D343
:1035C00070B5B1FA81F4B3FA83F52C1BA340C4F1B2
:1035D000200532FA05F63343A2405FF00046E6408C
:1035E00002E05B085FEA3202841A71EB030524BF34
:1035F000204629467641F4D302000B00300000211A
:1036000070BD70B5B1FA81F4B2FA82F5C4F120044C
:103610006419B4F12006DAD3B2405FF00044F440FC
:10362000002502E052085FEA3303C61A71EB020E6E
:1036300024BF3046714664416D41F3D302000B0054
:103640002000290070BD00002C4A1378032B07D8F6
:10365000DFE803F0020303041BE003E0284870479F
:1036600000207047092901DA26487047264A137856
:10367000093991FBF3F101F0010190FBF3F081F0C6
:103680000101C30758BF81F0010102EB81004068CE
:1036900070471E48F0B543680068C0F30746C3F39F
:1036A0000742C0F30727A1F1A005B61A6E43A02276
:1036B000B6FBF2F2C1F1A00102EB1044C3F3072202
:1036C000BF1A7D43A02203F0FF03B5FBF2F202EB29
:1036D000102600F0FF02D31A594324063606A02311
:1036E000240A360CB1FBF3F104F47C0406F47C46A6
:1036F000401A344300F0FC002043F0BDD50D0020FB
:10370000FCFCFC00FCBC7C00000000200C00002045
:10371000B0F90020002A48BF002205D442F6ED434C
:103720009A4202DB42F6EC420280B1F90000B0F5A9
:103730007A7FB8BF4FF47A7005DB43F66D12904282
:1037400002DB43F66C1008807047F8B586B0046859
:10375000856800EE101A00EE902AB8EEC00AF8EE66
:10376000E00A8DED000ACDED010A6A46404928467F
:1037700000F0DEFBB5F90A00D5ED010A00F081F892
:1037800070EE200AFDEEE00AB5F9080010EE901A7E
:10379000698100F076F8D5ED000A00F06BF8298118
:1037A00002AFA689304600F078FB8DED020A304664
:1037B00000F082FB87ED010A304600F07DFB87EDCB
:1037C000020A304600F069FBB1EE400A87ED030AB9
:1037D0002A4602A905F10C0000F0AAFBB5F9140075
:1037E000D5ED030A00F04DF8B5F9160070EE200A89
:1037F000FDEEE00A00EE100A10EE901AB8EEC00AD4
:10380000D5ED040AA98200F035F8E98205F114002B
:1038100005F11601FFF77CFFB5F91400642190FB58
:10382000F1F121806420B5F9162092FBF0F0608060
:10383000B5F9080000F16401C92917D36428B4BFA1
:103840005A200020B4F9161040182D386FF02C03C0
:1038500002B29A4208BF40F23B1001B2B1F5B47F08
:1038600008BF0020A08100202881688107B0F0BD3A
:10387000940F002070EE200AFDEEE00A10EE901A80
:10388000704700EE100AB8EEC00A7047F0B5002489
:103890000C27035D4BB10D5DAB185B1E0C2693FB33
:1038A000F6F607FB16335B1C0355641C192CF0DB82
:1038B000F0BDF8B50446207C012843D04FF47A715E
:1038C000002000F0BDFA2B490A78C2F1150290429F
:1038D00038D2012020740A78274D521C0A706921C1
:1038E000052000F0ADFA2168088087210A2000F049
:1038F000A7FA21680126488000271420784305F1A3
:1039000010010A5C012A0AD12844844218BF002E03
:1039100005D0214600F002FA461EB641F60F7F1C84
:103920003C2FEADB002EDAD0206801884288C18172
:1039300002820C21012000F083FAE16888700020E7
:10394000E1684870F1BD38B50021017401240168B7
:1039500008480278531E03704A88088800940D892D
:103960004989AD1809186B1E491E9BB289B200F037
:1039700005F831BD051C0020B40F00202DE9F84FDB
:103980008246894614461D46A9EB0A00291B401CA5
:10399000491C10FB01F0ADF8000000262746DFF8B7
:1039A00084810FE0B9B2FFF74FFEB1B248F82100B1
:1039B000761C0BF1010B1FFA8BF009F10101884213
:1039C000F0DB7F1CB8B2691C8842B8BFD346F2DB7B
:1039D000EBB2E2B25FFA89F15FFA8AF0FEF7A4FB7C
:1039E000BDF800104046BDE8F44FFEF7B2BC2DE92B
:1039F000F84F0025DFF830B1E9B214230BF11002C3
:103A000013FB01F3D05C002869D02420474A4143CE
:103A10005618F1893288914214BF01240024308A5B
:103A20007188884214BF01270027F0899042308AAC
:103A3000328968EB0808884269EB090951184FEA96
:103A4000D8784FEAD9798142A2BF8018718888421C
:103A50000ADBF1897289308852188242A1BF7189CC
:103A60004018F28990420EDAE8B200904FF0010A55
:103A7000318A3089328A4118F0894B1E7189084495
:103A800000F056F801E04FF0000A8AF0010A14EA4B
:103A90000A0F22D0E9B20091B6F80EC07489328ABA
:103AA000318988F0010064448646B6F80EC08A1851
:103AB000318811FB08F114FB0E1E7489531E328AE3
:103AC000AEF10101B6F800E07444604308FB0C005D
:103AD0009BB289B280B2FFF751FF17EA0A0F19D0E3
:103AE000E9B2009189F0010037897288318A3389FF
:103AF00012FB09F2591811FB0022318A531E7288F9
:103B0000BF18784309FB010082B2F0897189081857
:103B100000F00EF86D1CE8B20E287FF76DAFBDE81F
:103B2000F18F000064140020B40F0020C8040020AE
:103B3000411EF0899BB289B220E72DE9FE4F0B466A
:103B40008646B3F90C00B0F59E7F06DA2D2290FB75
:103B5000F2F22D2101FB120008B15A2098815E89F2
:103B60001A89B3F90C409E80DA805A2C18BF872C32
:103B700006D0B4F5877F1CBF40F23B10844201D1D0
:103B80005A811E815A2094FBF0F05A2101FB10400B
:103B900000B10420196A51F800902D2094FBF0F038
:103BA00000EBD070C005000E002101283AD14FF083
:103BB00001080024571EA6F1010C7C43032808FBD2
:103BC0000C4834D10124002505FB0CF504FB0757F4
:103BD0000328019730D101240027002516FB04F4A7
:103BE00012FB0744651B2DB2009580BB01248C4657
:103BF000002716FB04F412FB0C42D71B01283FB22E
:103C00004FF0FF3230D11446012200EBD0756D0821
:103C1000A0EB450C00F0010080F001050FFA88F8D8
:103C2000704644E002288846C3D10124C2E700243C
:103C30000228C8D10125C7E7002408B90127CCE72D
:103C40000027012818BF0228C7D10125C6E7002494
:103C5000012808BF4FF0010CCAD08C46032818BFBA
:103C60000228C5D10127C4E7022808BF1446CCD0DA
:103C700001240228C8DBC8E718FB05FA18FB0CFB77
:103C80001EFB0CAA1EFB05BB1FFA8AFA1FFA8BFB50
:103C900006FB0ABA1FFA81FB19F80AA040F82BA00C
:103CA000491C96440FFA8EFABA45E5D1A044DDF8D6
:103CB00000A00FFA88FED64504D00DF1040EBEF91F
:103CC00000E0EFE7002603E0761C20462B46B6B264
:103CD00019898E4220DA002704461D4603E0E9696F
:103CE00051F8200013E0B5F80A804745ECDA08FBEC
:103CF00006781FFA88F854F828000028EFD1698860
:103D000028887118381889B280B2FFF79DFC44F8F2
:103D100028007F1CBFB2E6E7BDE8F78F2DE9FC4F16
:103D2000D0F800E00D68BEF800602F88B74234BFBD
:103D300034463C46BEF802006988814234BFADF883
:103D40000200ADF80210BEF80A20ADF80020B0461F
:103D50006A89BDF800B01346B94603EB090AC344AB
:103D6000DA4503DAD719BFB2019705E0BDF80020A4
:103D70009619761EB6B20196BEF80820B5F808C0AE
:103D800006460F4607EB0C0A06EB020BDA45B2BFFC
:103D900061441018411EBEF90CC05A2082469CFB9B
:103DA000FAFA002200FB1ACC89B2BCF1000F18BF4E
:103DB0004FF0040CDEF820E05EF80CC0B5F90CE022
:103DC00082469EFBFAFA00FB1AE000B104202D6A3D
:103DD000BDF800B028581BE00AF101051FFA85FA6A
:103DE000514513DBA4EB080E0BFB0EAEAEEB060E3B
:103DF0001CF80E50002DEFD0A4EB090E03FB0EAE05
:103E0000AEEB0705455D002DE6D00122641CA4B28F
:103E1000019DA54203DB12B9BDF802A0E0E7104600
:103E2000BDE8F68F4AB1000011F8013B521E00F8C0
:103E3000013B1CBF11F8013BF8E7704770470000D9
:103E400038B504460D4600F00BF82D1B4FF0FF313E
:103E50006D1CB1FBF5F2521CB0FBF2F0001932BD43
:103E60002D49086840F0040008604A6807E0486887
:103E70008008800048604868400840004860486802
:103E8000C0F341100028F2D14868C207EFD5086896
:103E900020F004000860886870472DE9F04100F0C8
:103EA00041F8B528ACBF012100215A2816BFB0F552
:103EB000877F012700270DE02DE9F04100F032F85F
:103EC000A0F15B01B3298941C90F020016BFB428D4
:103ED0000127002781F00100401A00F047F804464E
:103EE0000D46F0B200F054F80C4A0D4B00F05EF8AD
:103EF00006468846384600F04BF83246434600F006
:103F00002BF922462B4600F051F800F04DFA00EE56
:103F1000100ABDE8F0810000000806501B0DE02DDE
:103F200090A0E63F0026861906F0FE06861B704725
:103F300091ED000AD2ED000A91ED011A60EE200A1F
:103F400092ED010A41EE000AC0ED000AD1ED020A2D
:103F500092ED001A91ED030A20EE811AD2ED010ACA
:103F600000EE201A80ED011A7047000010F00041A9
:103F700060B148BF4042B0FA80F29040D21CC2F516
:103F8000846241EA025202EBD021400570470000F2
:103F900050B1B0FA80F18840C91CC1F584610905AF
:103FA00001EBD021400570470146704730B540F223
:103FB000FF7C1CEA11541DBF1CEA1355644565457E
:103FC0003FE0641981EA030C6FF35F530CF0004C7F
:103FD00043F48013C90241F0004141EA505EC5023A
:103FE0001100A5FB020200284FF00000EEFB0120AB
:103FF0004FF00001E3FB052118BF42F00102401819
:1040000000214941E3FB0E01A4F580640D0302D2B7
:1040100092184041494154F1010470DD450872F1A4
:10402000004250F1000051EB0451A1F5801102D47F
:1040300041EA0C0130BD40F2FF7E4CEA0E510020F7
:1040400030BD0CEA1355644518BF654581EA030C81
:104050000CF0004C41D050EA410E1CBF52EA430E16
:1040600002E06146002030BD24422C441BD15FEAAF
:10407000050EF6D0090302BF01460020AEF1140E72
:10408000B1FA81F5AEEB050401FA05FE0C35C5F178
:10409000200100FA05F5C8404EEA000E6FF35F53A9
:1040A00043F480139CE733F00043B3FA83F504BF75
:1040B000B2FA82FE75440B3D641BB5F1200E2FBF92
:1040C00002FA0EF3AB40C5F1200E22FA0EFE38BF05
:1040D00043EA0E03AA40641C7CE750EA410E14BF79
:1040E00052EA430E6FF000014FF4001515EB430F39
:1040F0008EBF194615EB410F9DE7B4D830BDD4F102
:104100000104B4F120050FDAC4F12005520828BFDC
:1041100042F0010210FA05FE01FA05F57244E2BF11
:10412000E0402843E1400FE0352C9ADCC5F1200443
:1041300052EA400220FA05F218BF42F0010231FAB9
:1041400005F0A1400A43002172F1004250F1000045
:1041500051EB0C0130BD000070B491EA030F4FF039
:10416000004540F1B7806B40841A71EB030604D21E
:104170006E40001BB141121973414FF4001C1CEB3F
:10418000410F34BF7CEB430683E00C0DA4EB1356C8
:10419000362E00F37C80012E45EAC32341DC43EA3E
:1041A000525312BFD20292025B08240545EAC12194
:1041B00041EA5051D2EBC020994125D407D1B0FA41
:1041C00080F610FA06F162D00020203608E0B1FA3D
:1041D00081F6B140C6F1200220FA02F21143B0404C
:1041E0004FEAF474B4EB465434F001064FEA740419
:1041F0000AD8D6F50016760D04F00044F04061FAB6
:1042000006F25040F1404840C00A40EA415021F0D7
:10421000004128BF5FEA500550F1000044EBD12176
:1042200035E0DB0A45EAC121C90AB6F120050EDDF9
:1042300042EA0242120CC5F1200603FA06F6EB40F0
:1042400042EA06056D42984161F100010DE062FA13
:1042500006F5F240554063FA06FC82EA0C02F34090
:104260005A406D42904161EB030111F4801F05D16A
:10427000641E620502D06D004041494121F4801165
:10428000430875F1004350F1000041EB045170BC4C
:1042900070471CEB410F15D223F0004352EA43064E
:1042A0000BD04FEA4C0CBCEB410F04D80C0D661E32
:1042B000342EB7DDEBE7801A994150EA410608BF7A
:1042C0000021E4E708BF1CEB430F28BF6FF000019B
:1042D000DDE70000841A71EB030603D2001BB14135
:1042E000121973414FF4001C1CEB410F34BF7CEBDF
:1042F000430442E00C0DA4EB1356352E4FDC45EA87
:10430000C323DB0A45EAC121C912B6F120050DDD40
:1043100063FA05F6EB4086EA0305124218BF45F042
:104320000105C01851F100010CD213E062FA06F544
:10433000F2405540F3415A40B340F3405A40801890
:10434000594107D349085FEA30005FEA350528BFC5
:1043500045F0010501F58011420875F1004250F168
:10436000000041EB04514E0016F5001F70BC38BF31
:1043700070470020090D090570471CEB410F10D252
:1043800052EA43060BD0BCEB410F05D80C0DAB43F2
:10439000661E342EB6DD02E0AB438018594170BC76
:1043A000704770BC7047000001F000428B1AA3F107
:1043B0006051B1F5801F0ADBB1F17F6F1FD242EA75
:1043C000C102C10071F1004142EB507070470B1502
:1043D000C3F10903212B10D2890241EA90518002D6
:1043E0000128494141F0004121FA03F0C3F12003C3
:1043F000994071F1004150417047100070476FF0D3
:10440000000013EB103F5CBF000E42EAC050704743
:104410007047FEE7FEE7FEE7FEE77047704770472C
:104420002DE9F04100F05AF829490D894E8A4C894E
:104430008889CA890B8A6D1C06F10108641C401C1E
:10444000521C5B1CAEB2032E02D101250D7000255B
:1044500027460D81A4B20A2C844696461D46464640
:1044600002D101274F70002780B2192803D1012003
:1044700088704FF0000C92B2642A03D10120C870FA
:104480004FF0000E9BB2B3F5FA7F02D10120087104
:1044900000251FFA88F0B0F57A7F02D1012048711B
:1044A0000026887910B1888A401C88824E820D824D
:1044B0004F81A1F80EE0A1F80CC0BDE8F08180B5F5
:1044C0000448FCF707FC04480121017001BD00000D
:1044D000D81B00205C1B0020101C002002484168F3
:1044E00002788A1842607047A40F00200E480168C5
:1044F00041F47001016000220C49086840F001009D
:1045000008608A604FF480520B68094803400B60D2
:10451000CA6000200B68074A23F480230B6088617F
:104520004FF000611160704788ED00E0001002401C
:10453000FFFFF6EA08ED00E00000000000000000C8
:10454000010203040607080930B4002512E050F800
:10455000042BD30744BF4A44521E091F042942F8C2
:10456000045BFAD213468C0744BF15809B1CC90715
:1045700048BF1D7050F8041B0029E8D130BC7047BB
:10458000A0860100400D0300801A060000350C00D3
:1045900040420F0080841E0000093D0000127A0096
:1045A0000024F40000366E010048E801006CDC02D3
:1045B00010B5074979441831064C7C44163404E0A0
:1045C0000A68081D114488470146A142F8D110BD70
:1045D0002C000000480000004EF68851CEF2000189
:1045E000086840F470000860BFF34F8FBFF36F8F0F
:1045F0004FF00170E1EE100A704700004DFFFFFF21
:10460000600C0000B40F002000000000E7C2FFFFB4
:1046100074010000740700000000002000F00DF895
:10462000002801D0FFF7C4FFAFF300800020AFF3F4
:104630000080FCF781FD00F002F80120704700F0D7
:1046400001B800000746384600F002F8FBE700001A
:1046500080B5AFF30080024A11001820ABBEFBE723
:10466000260002000548014603B4684680F3098825
:10467000AFF30080FFF7B0FFFFF7D0FFA5EDF5FE29
:104680000148804701480047ED440008654600089E
:104690000000000001020304FFF7FEBFFFF7FEBFAA
:1046A000FFF7FEBFFFF7FEBFFFF7FEBFFFF7FEBF3E
:1046B000FFF7FEBFFFF7FEBFFFF7FEBFFFF7FEBF2E
:1046C000FFF7FEBFFFF7FEBFFFF7FEBFFFF7FEBF1E
:1046D000FFF7FEBFFFF7FEBFFFF7FEBFFFF7FEBF0E
:1046E000FFF7FEBFFFF7FEBFFFF7FEBFFFF7FEBFFE
:1046F000FFF7FEBFFFF7FEBFFFF7FEBFFFF7FEBFEE
:10470000FFF7FEBFFFF7FEBFFFF7FEBFFFF7FEBFDD
:10471000FFF7FEBFFFF7FEBFFFF7FEBFFFF7FEBFCD
:10472000FFF7FEBFFFF7FEBFFFF7FEBFFFF7FEBFBD
:10473000FFF7FEBFFFF7FEBFFFF7FEBFFFF7FEBFAD
:10474000FFF7FEBFFFF7FEBFFFF7FEBFFFF7FEBF9D
:10475000FFF7FEBFFFF7FEBFFFF7FEBFFFF7FEBF8D
:10476000FFF7FEBFFFF7FEBFFFF7FEBFFFF7FEBF7D
:10477000FFF7FEBFFFF7FEBFFFF7FEBFFFF7FEBF6D
:10478000FFF7FEBF200C04000000FCFCFC007C3C9A
:10479000FC00FC00012003FC00F8F8F816100100F2
:1047A000007A04111CF0010300FC7A0F1104127A44
:1047B0000441062016080807060608070706050133
:1047C0000100050501020304040202030360F10B6A
:1047D0001C1003480000206404F2F600014408188D
:1047E0003C3C1818001800363612100136367F028D
:1047F000301B36000C3E031E301F0C0000633318C4
:104800000C6663001C361C6E3B336E0006060329E3
:104810001006180C0606060C18000412180C1005D9
:104820000000663CFF3C661B54030C0C3F0C0C5E06
:10483000220C1977003F6C11191360302E100C03F5
:1048400001003E22323A2E263E000C0E0C0140069C
:104850003F001E33301C063308200E30331E003854
:104860003C36337F3078003F031F301010031C06A6
:10487000031F3308133F33411148121E0D2110113D
:104880000530023E30180E5C910422066621A031EC
:104890007F1103110C217A2160100C180C000C0000
:1048A0003E637B7B7B031E000C4120233F333300A0
:1048B0003F66663E66663F003C66030303663C0057
:1048C0001F36666666361F007E46161E16467E003A
:1048D0007F0833060F20300373667C0033372002D5
:1048E00033001E0C0110021E007830A7119014072F
:1048F0006766361E366667000F1F100F46667F001C
:1049000063777F7F6B63630063676F7B730830053A
:104910001C36636363361C70120650117F300233FD
:104920003B1E3810213820031E33070E38E8222D95
:1049300059221E681101423F0810011E0C003E1052
:10494000016B7F77501145114C2118118310051E02
:10495000007F6331184C70231E0601231E00FD20CA
:1049600004306040001E180120011E00082D810146
:1049700037FF0C1C210114011E303ED81D320315D7
:1049800000123B1424011E3303801230171118113A
:10499000101401323E0280133606D3120F10266E19
:1049A0007210041F0706366E66B0270C00C1440261
:1049B0001E00300001270706013267162118240166
:1049C00000003301110815BF15302160252824018E
:1049D00000003B02520F50127810336E6660397936
:1049E000200500080C3E0C0C2CA42137426E081543
:1049F00000199128016B7F7FAD436336D33233902A
:104A000015E5100B190C263F00380C0C070C0C3860
:104A100000F73104210D1113F0020C006E3B000170
:104A20001C0149360032041C050000641400208873
:104A30002004800480080000E70334F00BFF476F78
:104A4000696E67204D61696E3A5F0001F1FF01F107
:104A5000FF01F1FF01F1FF01F1FF01F1FF01F1FFA2
:104A6000019101120E02F2020502120302F10B1C67
:104A70001F8C0FE4081DE808FC0330E80D0020142B
:104A8000100D2001030031411DAD0D1003313233F3
:104A900034350C2DD40D4C0D040404001C289C004E
:104AA00000CC000028281CCD0DF30000A86B1E01CF
:104AB000A70D6106D10E820601A2000E2305050E88
:104AC0001202018306060E1203012110F1030EA14A
:104AD0002A6101C10E2162F10B8CF1020133010147
:104AE000444101D2010E417C41015166411F210D1B
:104AF000219A530505264203A921414306020D12BE
:104B0000010132060E410D31413202C5930101B659
:104B10004161610F516F414D71B4B30606C2711B03
:104B20001003040E0020C8047C016F12031E0B60EA
:0E4B3000028FC2F53C2C2210080001093D0046
:040000050800466544
:00000001FF
