:020000040800F2
:10000000B8150020A93E0008393C00083B3C000818
:100010003D3C00083F3C0008413C00080000000057
:10002000000000000000000000000000433C000849
:10003000453C000800000000473C0008493C00081F
:10004000C13E0008C53E0008C93E0008CD3E00087C
:10005000D13E0008D53E0008D93E0008DD3E00082C
:10006000E13E0008E53E0008E93E0008E73C0008E4
:10007000ED3E0008F13E0008F53E0008F93E00089C
:10008000FD3E0008013F0008053F0008093F000849
:100090000D3F0008113F0008153F0008193F0008F8
:1000A0001D3F0008213F0008253F0008293F0008A8
:1000B0002D3F00080000000000000000313F000854
:1000C000353F00080000000000000000393F000834
:1000D000000000003D3F0008413F00080000000014
:1000E000453F0008493F00080000000000000000F4
:1000F0000000000000000000000000000000000000
:100100000000000000000000000000004D3F00085B
:100110000000000000000000513F0008553F0008AB
:10012000593F00085D3F0008613F0008653F000837
:10013000693F00080000000000000000000000000F
:100140006D3F0008713F0008753F0008793F0008C7
:100150007D3F0008813F0008853F0008893F000877
:100160008D3F0008913F0008953F00080000000007
:10017000993F00089D3F00080000000000000000BB
:10018000A13F0008A53F0008A93F00082DE9FC4752
:10019000050066D0DFF8E476DFF8F466BC68D7F8CF
:1001A0000C802878C10604F00C0408F0030848D538
:1001B00024B10C2C08BFB8F1010F2CD1386881078D
:1001C00002D5A86900284CD0396808074EBF3968A5
:1001D00071680909286A01F0F001814206D200F035
:1001E00011FB00283DD100F014FA07E000F011FAED
:1001F00024B9286A00F006FB002832D100F0A5FAE5
:10020000BA6800F098FADFF88006006800F056FB44
:10021000010016D0F7E1A86928B3396841F001015F
:10022000396000F06DFB81463868810707D400F023
:1002300067FBA0EB09000328F6D30320E3E100F0FD
:10024000E8F92878C10756D5082C04D00C2C08BF33
:10025000B8F1030F18D1386881034CD568680028BD
:1002600049D10120CFE1386840084000386000F0F3
:1002700047FB814638688107E3D500F041FBA0EBDE
:1002800009000328F6D3D8E76868B0F5803F04D1A9
:10029000386840F48030386011E0B0F5A02F38683D
:1002A00006D140F480203860396841F4803105E09F
:1002B00020F480303860396821F480213960686822
:1002C00060B100F01DFB81463868810313D400F053
:1002D00017FBA0EB09006528F6D3AEE700F010FB92
:1002E00081463868810306D500F00AFBA0EB0900BF
:1002F0006528F6D3A1E72878810713D5042C04D00C
:100300000C2C08BFB8F1020F22D13868410502D584
:10031000E8680028A5D07868296920F0F85040EAFC
:10032000016078602878010743D568690028706803
:1003300030D040F00100706000F0E2FA8046706852
:10034000810736D400F0DCFA00F05FF9F7D374E7E8
:10035000E86878B1396841F48071396000F0D0FA0A
:10036000804638684105D6D400F0CAFA00F04DF94D
:10037000F7D362E7386820F48070386000F0C0FA84
:10038000804638684105CDD500F0BAFA00F03DF955
:10039000F7D352E740084000706000F0B1FA8046A1
:1003A0007068810705D500F0ABFA00F02EF9F7D39D
:1003B00043E72878410767D5B86DC1004FF00008C2
:1003C0000AD4B86D40F08050B8654FF00108B86DA0
:1003D00000F0805000900098DFF8B894D9F8000041
:1003E000C10513D4D9F8000040F48070C9F80000AA
:1003F00000F086FA8246D9F80000C10506D400F064
:100400007FFAA0EB0A000328F5D316E7A8680128B5
:1004100004D1306840F00100306010E005283068F9
:1004200006D140F004003060316841F0010105E080
:10043000400840003060316821F004013160A86854
:1004400041F2893960B100F05BFA82463068810779
:1004500013D400F055FAA0EB0A004845F6D3ECE6B9
:1004600000F04EFA82463068810706D500F048FA5F
:10047000A0EB0A004845F6D3DFE6B8F1000F03D041
:10048000B86D20F08050B8652878810621D5686A5B
:100490000028B0680ED040F00100B06000F030FAE3
:1004A0008046B068810714D400F02AFA00F0ADF855
:1004B000F7D3C2E640084000B06000F021FA804661
:1004C000B068810705D500F01BFA00F09EF8F7D35D
:1004D000B3E6A86A002800F09580022873D1F86876
:1004E000EA6A00F00301914201BF00F0700110318F
:1004F0002A6BB1EB021F1DD16A6B00F4FE41B1EB18
:10050000022F02BF00F07841AA6BB1EBC26F11D18C
:10051000EA6B00F4C00101F500115208B1EB425F33
:1005200008D1296C00F0C06000F100704908B0EB00
:10053000416F44D00C2C47D0386841013FF591AE53
:10054000386820F08070386000F0DAF904463868C6
:10055000810105D500F0D4F9001B0328F7D36CE620
:10056000F868DFF83413EA6A0840296B1043491E23
:1005700040EA0110EA6B696B520840EA0120296CDD
:10058000521E490840EA4250491E40EA4160A96BA8
:1005900040EAC160F860386840F080703860F968FF
:1005A00041F08071F96000F0ABF9044638688101D0
:1005B00028D400F0A5F9001B0328F7D33DE63868DE
:1005C00081011FD4E7E70C2C3FF44BAE386820F0D4
:1005D000807038603968080103D4F9688908890097
:1005E000F960F968DFF8B4020140F96000F088F9B9
:1005F00004463868810105D500F082F9001B032804
:10060000F7D31AE60020BDE8F687A0EB0800032820
:100610007047386840F0080038603968286A21F06F
:10062000F001014339607968E86921F47F4141EACA
:100630000021796070472DE9F0410400884658D0C8
:10064000DFF85C62306800F00700404509D231688D
:10065000C90848EAC1013160306800F00700404530
:1006600047D12078DFF81452C1072AD560680328E3
:1006700002D129688A0108E0022802D129688A0388
:1006800003E00028296802D18A0702D431E04A0534
:100690002FD5A968890840EA8100A86000F030F9E8
:1006A0000746A868616800F00C00B0EB810F08D025
:1006B00000F026F9C01B41F289318842F1D30320B2
:1006C00037E02078810705D5AA68A06822F0F002FB
:1006D0000243AA60316801F0070188450BD23068F7
:1006E000C00848EAC0003060316801F007014145A8
:1006F00001D001201DE02078410705D5AA68E068F7
:1007000022F4E0620243AA602178080706D5A968AE
:10071000206921F4605141EAC001A96000F015F898
:10072000AA6800F008F8BDE8F0415748006800F0FA
:10073000C5B8BDE8F0815B49C2F30312895C504A39
:1007400001F01F01C8401060704770B54B4A4D4B17
:100750009068D6680025002110F00C0006F0030612
:10076000524C03D00C2812D1012E1AD115682E0735
:1007700004D4464D2E68C6F3032502E01568C5F380
:1007800003154B4E56F8255048B9294624E0042855
:1007900008BF214620D008281ED119461CE00C288D
:1007A0001AD1D06800F00300022803D0032808BF44
:1007B0001D4600E02546D168D068D268C0F3062007
:1007C0004543C1F30210C2F34161401C491CB5FB13
:1007D000F0F04900B0FBF1F1084670BD2848324AFC
:1007E000006813683349C3F3022206E024482E4A06
:1007F000006813682F49C3F3C222895C01F01F010E
:10080000C84070477CB52C4E054630680024C100B6
:1008100002D500F07BF80EE0306840F08050306088
:10082000316801F080510091009800F06FF8316854
:1008300021F080513160B0F5007F04D1802D0CD9BA
:10084000A12D09D304E0802D88BF032405D801D150
:10085000022402E0702D00D1012411480168C9086A
:1008600044EAC1010160006800F00700A04201D025
:10087000012076BD002076BD00000000001002407F
:100880000009002000127A00F808002094100240AD
:1008900090100240007000408C809D01FFFFEEFE32
:1008A00000200240603D0008081002400024F400CF
:1008B000A83D0008B83E00085810024070B50E4E22
:1008C0000446B0680025A0B14FF47A710B4AB1FB21
:1008D000F0F11068B0FBF1F000F098F848B9102C76
:1008E00007D2002221464FF0FF3000F067F8746015
:1008F00000E00125284670BDF40800200009002012
:1009000001480068704700BFF4080020DFF86C0061
:10091000006800F4C060704710B5DFF86010B0F5F3
:10092000007F086800F4C0601DD1B0F5007F22D0C0
:100930000A68DFF84C30012060F34A220A60322056
:100940001C68DFF840204443B4FBF2F0401C00E098
:10095000401E4A69530501D50028F9D1486941056F
:1009600009D5032010BDB0F5806F04D00A680220BD
:1009700060F34A220A60002010BD000000700040B1
:100980000009002040420F000901020002D428485B
:1009900081547047274B02F00F021A4402F8041CDE
:1009A0007047254B19684FF6FF020002114000F412
:1009B000E0600843214908431860704770B51E4B3A
:1009C0001C68C4F302230124C3F10705052D2EBFC3
:1009D0000F2504FA05F56D1E1E1D072E34BF0023DA
:1009E000DB1E2940994004FA03F3BDE870405B1E0A
:1009F0001A401143C8E7010007D4012200F01F018B
:100A00000F4B8A40400943F820207047401EB0F148
:100A1000807F01D3012070470A490B4A48600023B8
:100A2000F02010708B6007200860002070470000E5
:100A300000E400E018ED00E00CED00E00000FA0535
:100A400000E100E010E000E023ED00E0603000EBAA
:100A50008100006800F0F8407047603000EB8100D2
:100A6000016821F000410A4302607047C06800F449
:100A70004060401E8041C00F7047CB0D10B5143050
:100A800003F004031818090D01F01F01036807247F
:100A90008C40A34302FA01F11943016010BDF8B57F
:100AA00004460020002500900CB90120F2BD04F19D
:100AB0005006706828B9204600F0B0FB0020B060F6
:100AC000307021688868800004D58A68DFF80002E9
:100AD00002408A6021688868C00015D48A68DFF8FF
:100AE000F401024042F080528A60DFF82015DFF8FE
:100AF00020250868B0FBF2F2009202E00098401E48
:100B0000009000980028F9D120688168C90008D4B5
:100B1000726842F0100272600125B16841F0010173
:100B2000B16081687268D30677D4490775D472685A
:100B300022F4807242F0020272608068C0070CD416
:100B4000DFF8D0140868C00707D4DFF8CC140A68AF
:100B5000606822F47C1202430A6004F13002607E75
:100B60005368E16894F8207043EA4033A0680B436F
:100B70000343012F43EA074303D1606A401E43EA5F
:100B80004043A06A20B100F470700343E06A03435D
:100B90002168DFF88804CF6807403B43CB602168B9
:100BA0008B6888685B0724D4000722D4CB68DFF801
:100BB0007004277E0340107843EA873343EA4003FA
:100BC000CB60107A01280FD123681F69D1681069A2
:100BD0006FF38A070F435169074390690F43074337
:100BE00047F001071F6104E02068016949084900D6
:100BF0000161206901282068016B05D1E2690909BA
:100C0000521E42EA011101E00909090101630120B4
:100C1000716860F30101716004E0706840F01000D9
:100C2000706001252846F2BDF8B504460D462068DF
:100C300080684007164648D404F1500739780129E6
:100C400043D001203870204600F006FA010039D167
:100C50007968DFF87004014041F480717960786848
:100C6000C10446BFB86820F006000020B8603346D3
:100C7000E06C0FF27541C162E06C0FF2D941016383
:100C8000E06C0FF2D94141631C2122681160002001
:100C900038702A462068416841F0100141602068A0
:100CA000C16841F00101C160206800F14001E06CC1
:100CB00000F0EAFB2268074993680B4043F0040305
:100CC0009360F2BD00213970F2BD0220F2BD000038
:100CD000C0FFFF5FC0FFFF7FF8B50646002006F1AA
:100CE00050050F46009000242978012901D10220E7
:100CF000F2BD0120287031688868400700F17D81CD
:100D00007868062811D2801E03280CD8DFE800F08E
:100D1000020406080C2007E0122005E0182003E07A
:100D20004FF4807000E00620786079683268386897
:100D30008B09303203F00C039A1801F01F01D2F82E
:100D400000C01F238B40C0F384602CEA030300FA29
:100D500001F119431160306882688168520720D41C
:100D600009071ED4BA683968FFF787FE3068C16882
:100D70003A69042A16D060303B6800EB820CA9481F
:100D8000DCF80020024003F0F8431343C9087A69F5
:100D9000480000F006008240134343F00043CCF8C3
:100DA000003076E00021FFF751FE40033068214615
:100DB00004D1FFF74BFEC0F3846003E0FFF746FE6B
:100DC00000F039F939684A030EBFC1F3846191FA22
:100DD000A1F1B1FA81F1884204D1306800220021EA
:100DE000FFF73BFE00F034F9400304D100F030F986
:100DF000C0F3846003E000F02BF900F01CF93968BF
:100E00004A030EBFC1F3846191FAA1F1B1FA81F1F5
:100E1000884204D1306800220121FFF71EFE00F055
:100E200013F9400304D100F00FF9C0F3846003E02C
:100E300000F00AF900F0FFF839684A030EBFC1F369
:100E4000846191FAA1F1B1FA81F1884204D130684C
:100E500000220221FFF701FE00F0F2F8400304D166
:100E600000F0EEF8C0F3846003E000F0E9F800F071
:100E7000E2F839684A030EBFC1F3846191FAA1F127
:100E8000B1FA81F1884204D1306800220321FFF7D2
:100E9000E4FD31688868C00763D4FA683B68D1F81C
:100EA000B0C0DFF824E202F01802C3F312002EFAF9
:100EB00002F22CEA000013400343C1F8B030F86896
:100EC000DFF8081288424CD1386841030EBFC0F3E6
:100ED000846290FAA0F1B1FA81F2521C012102F071
:100EE0001F020A2A1BD2420306D1C0F38462C0F358
:100EF0008463C0F3846001E000F096F8521C5B1C30
:100F0000920603F01F03401C02F0F842994000F0E3
:100F10001F00114300EB400041EA00511DE0420375
:100F200006D1C0F38463C0F38462C0F3846001E03F
:100F300000F07AF85B1C521C401C9B0602F01F025A
:100F400000F01F0003F0F84391400A38194300EB0A
:100F5000400041EA005141F00071BA683068FFF783
:100F60008CFD3B68DFF8680103424BD02A48DFF86C
:100F700064710168DFF86021BB4201F0E0711BD1B0
:100F80000B023FD4366896423CD10268204B22F0D7
:100F9000E072114341F4000101600C201B490A6812
:100FA000B2FBF3F343430093009800281EBF009860
:100FB000401E0090F8D125E0DFF82071BB420BD134
:100FC000CB011FD4366896421CD1026822F0E07231
:100FD000114341F080710EE0DFF80471BB4211D182
:100FE0004B020FD4366896420CD1026822F0E072B0
:100FF000114341F48001016004E0686840F0200082
:1010000068600124002028702046F2BD00090020FD
:10101000400D0300080004500803045007C0F0FF0F
:10102000FDBFFFFF00F0FF0390FAA0F0B0FA80F2DE
:1010300013461046704790FAA0F0B0FA80F070475F
:1010400030680321FFF702BD30680221FFF7FEBCC4
:1010500030680121FFF7FABC70B504462168886842
:10106000C2071FD488686FF39E10D0B988681D4DE1
:10107000284040F001008860FFF742FC06462068E7
:101080000168CA070ED48068C00705D4206881684B
:10109000294041F001018160FFF732FC801B0328E9
:1010A000EDD301E0002070BD00F001F870BD606D6F
:1010B00040F010006065A06D40F00100A0650120C7
:1010C00070470000FEF1FFFFFFFF070000007F40B8
:1010D00000000880000052C700000450000084CBCC
:1010E00001000080C0FFFF7F10B5846A616D11F0C0
:1010F000500F22D1606D40F400706065216808686F
:101100000207084606D5FFF7B1FC88B12068C16820
:10111000880401E0C16888070AD4616D21F48071F8
:101120006165606DC10403D4606D40F001006065CD
:101130002046BDE8104000F056BA616DCA0604D5DD
:101140002046BDE8104000F04FBAE16C4A6BBDE8A4
:1011500010401047806A00F048BA0000806A416D74
:1011600041F040014165816D41F00401816500F06D
:101170003BBAF0B40246106895681318506803EB48
:101180005004C00748BF4D44A3422DD013F8016B53
:1011900016F0030004BF13F8010BC01C31090F291E
:1011A00007D113F8011B0F3103E013F8017B05F899
:1011B000017B401EF9D10029E6D013F8010BC6F3DC
:1011C0008106032E08BF13F8016B00EB0620404296
:1011D00028440026B71E8F421EBF10F8017B05F879
:1011E000017B761CF6D1CFE7F0BC02F10C00704712
:1011F0006B4881B0816841F001018160816801F034
:10120000010100910099026842F08052026000687A
:1012100000F080500090009801B0704738B586B05B
:1012200000F07BF821685F48814244D15E485F4D01
:10123000016841F400510160026802F4005200921A
:1012400000F03BF8036803F0010300930099026883
:1012500042F0020202601021006800F002000090DB
:101260000B2200F054F84FF0904001A900F0BEF9B5
:1012700001200B21019002910022039201A94C4808
:1012800000F0B4F900216960E960802149482860D4
:1012900029614FF48070002268614FF40061AA60F8
:1012A000A961EA612A62284600F08AF808B100F0D4
:1012B00025FCE564AC6207B030BD0099026842F0DD
:1012C00001020260704710B586B000F026F8216870
:1012D0003948814219D13448416941F48051416112
:1012E000416901F480510091FFF7E7FF8221006816
:1012F00000F001000090022200F009F8032205210D
:101300000591049201A900F046F806B010BD0098BE
:10131000019102920021039170470446142200219A
:1013200001A800F01BBC10B586B0044614220021B1
:10133000684600F013FC21682048814228D11A48F1
:10134000C16841F40031C160C16801F40031059108
:101350000599FFF7B3FF0421006800F00100059034
:101360000222059800910192002102910322072197
:101370000491039200F00EF8022101914FF4004015
:1013800003210090002203910491029200F002F8E0
:1013900006B010BD69464FF0904000F027B900003C
:1013A00058100240000004504C100240FC10002075
:1013B00000040048080002400030014000440040A2
:1013C00070B508B9012070BD0268284D284CAA42AA
:1013D00000F1240308D227498A181426B2FBF6F23A
:1013E00092001A62DC6108E023498A181425B2FBD6
:1013F000F5F2920021491A62D96102225A700168FD
:101400000D688168C26806686FF30E150D430169A7
:10141000154342690D4381691543C2690D43016A51
:1014200015430D4335608268B2F5804F17D0DA69F5
:101430000F21A2420CBF124A124A146893F820509E
:1014400005F01C05A94024EA01011160116893F818
:101450002040406804F01C04A040014311600020BB
:10146000986101215970187070BD00000804024095
:1014700000000240F8FFFDBFF8FBFDBF0004024082
:10148000A8000240A8040240F8B5044604F124066E
:1014900000253078012801D10220F2BD01203070F2
:1014A0007778012F26D1022070700027B76120685D
:1014B000D0F800C04FEA5C074FEA470CC0F800C004
:1014C000204600F07CF82168F06820B10A6842F0FC
:1014D0000E020A6008E0086820F004000860206836
:1014E000016841F00A0101602068016841F00101D2
:1014F000016001E0357002252846F2BDF8B500F123
:1015000024010423CA6914680268156891F82060F0
:1015100006F01C0603FA06F73C4210D06F070ED502
:101520001468A50603D4146824F00404146000F0C1
:101530003EF8C968002939D0BDE8F44008470223C5
:1015400003FA06F73C4213D0AF0711D51468A5067D
:1015500005D4146824F00A04146001224A7000F0D3
:1015600026F800220A70896801B3BDE8F4400847F4
:10157000082303FA06F6344218D02B0716D5146850
:1015800024F00E041460012291F82030CC6903F09D
:101590001C039A406260012301228A614B70002281
:1015A0000A70096911B1BDE8F4400847F1BD91F82E
:1015B0002020CC6902F01C0293406360704770B534
:1015C00090F84450066C012405F01C05AC40746092
:1015D000046863608068102802D1A260E16070BD79
:1015E000A160E26070BD7047704770472DE9F84F09
:1015F0000027674A674B4FF00F0805460E463CE050
:10160000DFF894E1754514BF4FF0070E4FF0020E5E
:101610000EFA01F141EA040E604941F82CE0C143A1
:10162000D2F800C0746801EA0C0CE40348BF40EA39
:101630000C0CC2F800C0D2F804C0746801EA0C0CAB
:10164000A40348BF40EA0C0CC2F804C0D2F808C09A
:10165000746801EA0C0CE40248BF40EA0C0CC2F8C2
:1016600008C0D2F80CC001EA0C0C7168890248BFAE
:1016700040EA0C0CC2F80CC07F1C316831FA07F04C
:1016800000F07F800124BC4014EA0100F4D04FEA4E
:10169000470C032101FA0CF16FEA010E7168012970
:1016A00018BF022903D0112918BF122912D1A96825
:1016B000D6F80C900EEA010109FA0CF949EA010189
:1016C000A960696821EA04047168C1F30011B94096
:1016D0000C436C60E968B4680EEA010104FA0CF48A
:1016E0002143E960B9007468022C18BF122C12D192
:1016F000FC0805EB840401F01C09D4F820A008FACA
:1017000009FB2AEA0B0AD6F810B00BFA09F949EAE4
:101710000A09C4F820902C680EEA040E347904F00B
:10172000030404FA0CF444EA0E0CC5F800C0746813
:10173000E400A1D5D3F800C0184C4CF0010CC3F85C
:1017400000C04FEA970CD3F800E00EF0010ECDF880
:1017500000E001F00C01DDF800E054F82CE008FA9C
:1017600001F42EEA0404B5F1904F08BF4FF0000ECB
:1017700006D0DFF82CE075457FF442AF4FF0010E44
:1017800046E7BDE8F18F0AB1816170478162704719
:1017900000040140601002400008004808000140B9
:1017A000000400482DE9F84F86B000F0E1F900F0A0
:1017B00015F91422002101A800F0D0F9D14CD24E25
:1017C0006068D24D40F0040060600022606800F064
:1017D000040000900098616841F001016160606858
:1017E00000F0010000900098616841F00201616022
:1017F000E821606800F00200009000983046FFF792
:10180000C2FFE8210191012200210391049102927B
:1018100001A93046FFF7EAFE206840F00100206091
:1018200000222168BA4C01F00101009100210098CA
:101830000B20FFF7C3F80B20FFF7DDF84FF48271A0
:10184000A1604FF4E061B348606021610020E06076
:1018500060610021A1612162A1624FF40070E0612A
:101860000721216300206062E06260630821A163B8
:10187000201D00F08DF908B10A2028804FF4E130D6
:10188000A549A166E06604F1840200212167616731
:10189000A1670C20C4F880105160E06704F1840156
:1018A0000020C4F88400886004F1680000F060FB48
:1018B00008B10A20288018220021684600F04EF95D
:1018C0000021964F7960F9600121954838603961AF
:1018D000082078610221F96107F13000002201211E
:1018E000BA603A8387F820207962BA62FA6202709D
:1018F000426002723846FFF7D2F808B10A21298007
:10190000062101917F21874A039100920021042240
:1019100005910292049269463846FFF7DDF908B155
:101920000A2129800C21804A01910092694638469B
:10193000FFF7D2F908B10A20288001228021304621
:10194000FFF721FF00F09EFD00F0DEFF01F050F8F0
:10195000062000F087FE00F0AAF8744E744FDFF8FE
:10196000D481DFF8D491DFF8D4A1DFF8D4B19BF8AB
:10197000000010B100218BF800109AF8000020B18F
:1019800000218AF8001000F016FF99F8000028B135
:10199000002189F800106B4801F02FF898F800003A
:1019A00010B1002188F80010387808B10021397092
:1019B000307840B1002131701420A32101F042F8A9
:1019C00004F18401486620780028D0D05E480021C8
:1019D0000180217029805D480170C8E718B5ABB05F
:1019E000442200211AA800F0B9F814220021684608
:1019F00000F0B4F85422002105A800F0AFF801F07F
:101A0000B7F85348414C016821F0180101601422D5
:101A10001A92012170221C91209122920021012210
:101A200021912592269202211022249127920721AA
:101A30000222289129922A921AA8FEF7A7FB08B140
:101A40000A2020800F21009103220021029103919E
:101A50000491019203216846FEF7EDFD08B10A21C9
:101A6000218000210E9144F202020121069107918A
:101A70000592082108914FF08052022117920A9195
:101A80000B9107224FF0807109920C9105A801F08B
:101A900077F808B10A2020804FF40070FEF73CFF71
:101AA00008B10A20208001F084F92CB010BD80B567
:101AB0002848C16941F48021C161C16921F48021B4
:101AC000C161026842F480120260816F21F04061BE
:101AD0008167816F41F040618167C16B41F4802172
:101AE000C163C16D41F48021C165022001F0FAF9A2
:101AF0001948016821F02C01016001BD03490A2049
:101B00000880704748100240000400488E110020F1
:101B1000AC0F00200030014000440040981000202D
:101B2000000004500002B0250080F03E7D1100202E
:101B30007C1100207B1100207A11002079110020F7
:101B400078110020B01100208C1100207E1100209F
:101B500090100240101002400008065010B50446D4
:101B600010460A460146204601F0D0F9204610BD35
:101B7000032010B5FEF715FF0020FEF79FFE00249E
:101B8000002814BF0124FFF733FB204610BD0000DE
:101B900070B5040001D1012070BD0020A06204F1E5
:101BA0005C05687820B9002129702046FFF78BFB7F
:101BB0000220687000F03DF8E168B1F5E06F04D9EB
:101BC0000022B1F5706F03D104E04FF4805201D0D0
:101BD0000020A062206B30B9B1F5E06F87BF022012
:101BE0002063012121636368A0682169266803439B
:101BF00060690B43A169034301F40071E0690B4381
:101C0000216A0343A06A0B4303433360A369606AFC
:101C1000616B1B0C03F004030343E0680B430343B5
:101C20001A4323685A60002169600120687000200F
:101C300070BD2068016821F04001016070472DE906
:101C4000F843054605F144060027307E0C469146D0
:101C50009846012808BF022000F09E8001203076BF
:101C6000FEF74EFE717E012918BF02274AD1002CD3
:101C700018BFB9F1000F00F08980032171760023AD
:101C8000F361AC63A5F83C90A5F83E902B643380DB
:101C900000247480F360B360A968B1F5004F04D1EB
:101CA00029680B6843F480430B6029680B685C0665
:101CB00003D40B6843F040030B6040F20172EB6801
:101CC00069689342444621D3002918BFB9F1010F36
:101CD00000F071F8804604E0A96B0A88C26000F049
:101CE00063F8E88F00283DD0286881688A07F3D41C
:101CF000FEF706FEA0EB0800A04204D314F1010F8A
:101D0000EFD0032743E0002CEBD1FAE7002918BFFE
:101D1000B9F1010F00F05BF8804607E00988C16067
:101D2000A86B811CA963E88F811EE987E88FC8B181
:101D3000286881688A0708D5A96BEA8F022AEDD244
:101D40000978017300F02AF8EFE7FEF7D9FDA0EB60
:101D50000800A04203D314F1010FE7D0D1E7002C13
:101D6000E4D1CEE742462146284600F0DCF808B12F
:101D70002020F061A86838B9002100912968CA685C
:101D8000009289680091009AF06900B10127012052
:101D90007076002131763846BDE8F283A86B411C8D
:101DA000A963E88F411E7047A86B811CA963E88F67
:101DB000411EE987704709D1A96B2B680A88DA6050
:101DC000A96B8A1CAA63E98F4A1EEA87704715D15E
:101DD000A96B2A68EB8F022B08D30988D160AA6B04
:101DE000911CA963EA8F911EE98770470B781373E2
:101DF000A96B4A1CAA63E98F4A1EEA8770472DE93E
:101E0000F041069F05460E4690461C4628688168AC
:101E10003140B1420CBF0120002040452FD014F1C9
:101E2000010FF3D0FEF76CFDC01BA04201D2002CC5
:101E3000ECD12868416821F0E00141606868B0F5A4
:101E4000827F09D1A868B0F5004F18BFB0F5806F48
:101E500002D12868FFF7EEFEA86AB0F5005F09D14D
:101E60002868016821F4005101602868026842F482
:101E70000052026005F15C0000F049F800E000202B
:101E8000BDE8F0812DE9F041069F064688461546DB
:101E90001C463068816808EA0101A94234D0B8F5CF
:101EA000C06F04BF002D007B14F1010FF1D0FEF7CD
:101EB00027FDC01BA04201D2002CEAD13068416846
:101EC00021F0E00141607068B0F5827F09D1B0680F
:101ED000B0F5004F18BFB0F5806F02D13068FFF742
:101EE000A9FEB06AB0F5005F09D13068016821F43D
:101EF000005101603068026842F40052026006F14D
:101F00005C0000F004F800E00020BDE8F081012151
:101F10004170002202700320704700962B46002279
:101F2000802120466BE77CB50D4616460446009698
:101F30002B4600224FF4C051FFF7A4FF38B9FFF73A
:101F4000ECFF20B900962B4600F00CF808B100F029
:101F500001F876BD206E40F0200020660320704717
:101F60000090642300224FF4C06120468AE70000FD
:101F700038B5040009D004F17005696809B900F0AA
:101F80001EF800F021F8012801D1012032BD606A5D
:101F900008B100F02AF800F00AF821F02A01FFE762
:101FA000816000F01BF8BDE8324000F0AEB9206857
:101FB000416821F4904141602068816870470020A9
:101FC00028702046FFF7AFB92421696020680268B5
:101FD000520852000260204600F00AB820680168EA
:101FE00041F00101016020467047204600F02AB907
:101FF0002DE9F0410446884822681368A16803402F
:1020000020690B4361690343E0690B430343136099
:1020100000265168E06821F44051014351600025D9
:10202000A3697C498A421CBF206A034397687B48A6
:1020300027F430673B439360794F7A4BBA4221D102
:102040001B6803F00303032B29D8DFE803F00255D4
:1020500053570127E169B1F5004F4FF6F07840F092
:10206000AA8067B1012F00F07E80022F00F07E80F1
:10207000042F00F08080082F00F086808CE0FEF7AF
:10208000ADFB7AE0684FBA4222D11B6813F00C0313
:102090002ED0042B30D0082B2CD00C2B2ED0102778
:1020A0008A42D7D1390006D0022F08D0042F27D07A
:1020B000082F28D0A7E0FEF791FB002852D06268D5
:1020C00002EB4201884202D3130383421ED29AE0FC
:1020D0008A42E4D11B6813F4406309D0B3F5806FE2
:1020E0000AD0B3F5006F05D0B3F5406F06D0D6E740
:1020F0000027D5E70227D3E70427D1E70827CFE752
:10210000FEF723FBD9E74FF40040D8E737B1022FA1
:102110000AD0042F0ED0082F16D01BE0FEF75EFB6E
:1021200000F08AF879410AE0404911EB520045EB92
:10213000050104E0FEF709FB00F07EF86941002389
:1021400000F018FF064606E0530803F50003B3FB52
:10215000F2F600E00125A6F540703549884252D2DA
:102160002268D66050E0FEF741FB06E06068314926
:1021700001EB50010CE0FEF7E8FA61684A0802EB57
:102180004002B2FBF1F605E06068410801F58031DC
:10219000B1FBF0F6B6B200E00125A6F11000404513
:1021A00031D208EA0601C6F3420040EA010820687D
:1021B000C0F80C8028E047B1012F09D0022F0CD0C5
:1021C000042F08D0082F0ED015E0FEF707FB04E01F
:1021D000FEF70CFB01E0FEF7B8FA616800EB510076
:1021E000B0FBF1F605E06068410801F50041B1FB84
:1021F000F0F6B6B200E00125A6F11000404502D28B
:102200002168CE6000E00125002020666066284637
:10221000BDE8F08100800040F369FFEF0024F40086
:10222000003801408810024000440040000024F4BF
:1022300000FD0F000048E8016268010E560816EB29
:102240000020704790F82410CA0706D5026853682A
:10225000816A23F400330B43536090F824108A07FB
:1022600006D502685368C16A23F480330B43536078
:1022700090F824104A0706D502685368016B23F4CE
:1022800080230B43536090F824100A0706D5026898
:102290005368416B23F400430B43536090F82410C0
:1022A000CA0606D502689368816B23F480530B43FA
:1022B000936090F824108A0606D502689368C16B73
:1022C00023F400530B43936090F824104A0610D572
:1022D00002685368016C23F480130B435360036C52
:1022E000B3F5801F05D15368416C23F4C0030B4341
:1022F000536090F824100A0606D501684A68806C7D
:1023000022F4002202434A607047F8B5044604F103
:1023100070050020E8606FF07E47FEF7F1FA064690
:10232000206801680A0708D50097334600224FF459
:102330000011204600F017F860B9206801684A07CC
:102340000AD50097334600224FF48001204600F062
:102350000AF808B10320F2BD202068602021A9609E
:1023600000202870F2BD2DE9F041069C05460E467E
:1023700090461F462868C1693140B1420CBF012018
:102380000020404526D114F1010FF3D0FEF7B8FA32
:10239000C01B844200D34CB900F01EF8202200F08C
:1023A00021F8002101700320BDE8F0812868016850
:1023B0004A07DFD5C1690805DCD54FF400612A68FA
:1023C0001162202200F008F800F00CF8C160002231
:1023D0000270E8E70020E7E72868016821F4D0717F
:1023E000016070472868816849084900816005F1EB
:1023F0007000202141608260704700002DE9F041AB
:1024000004460D46164698462A2000F026F8DFF8C6
:102410004072387D3870A41C7C70B870AD1CDFF839
:102420003442FD704FF47A73042239462046FFF798
:1024300006FC2B2000F011F8387D3870761C7E7079
:10244000B870394608F10100F8704FF47A732046ED
:10245000BDE8F0410422FFF7F2BB11B57F4C81B01B
:10246000002240212046FFF78EF94FF47A730122B3
:1024700001A97848FFF7E3FB012240212046FFF73E
:1024800082F913BD80B5002220217448FFF77BF943
:102490000120FFF7E2FF962000F024FD1120FFF756
:1024A000DCFF962000F01EFD2920FFF7D6FF362026
:1024B000FFF7D3FFC0208DF800004FF47A7301229C
:1024C00069466448FFF7BBFB01BD2DE9F0410646B4
:1024D0000D462C20FFF7C1FF002000215E4C0FE0CD
:1024E00056F82020120C6254491C56F82020120A7B
:1024F0006254491C56F820206254401C80B2491C8A
:1025000005EB45029142EBD3C820002695FBF0F77E
:10251000DFF8408106E04FF4167221464046FFF78F
:102520008EFB761CF0B2B8424FF47A73F3DBC8200E
:1025300000FB175505EB4505AAB221464046BDE80C
:10254000F041FFF77CBB2DE9FE4F0646444F317A40
:102550000291019196F814B01DE072888DF8002068
:102560000BFB05089DF8004009194B1EA8F101015D
:10257000DBB22246C9B2C0B2FFF740FF717D15FB46
:102580000BF010FB01F1B06989B2FFF79EFF0198D3
:10259000451B2DB201950198002856DD707DC8219C
:1025A0001BFB00F091FBF0F50299A942BABF02A80B
:1025B0000578EDB2029A01983188101A0BFB0010D1
:1025C000C0B2002401E0641CE4B2717D8C42C4DA24
:1025D0004FF0000802E0009808F10108A845F2DA7F
:1025E000DDF808C001997368F269ACEB010CC444D2
:1025F00096F8211013F80C3011FB03434FF000093B
:10260000D15C397000900AE00098718832690BFB48
:1026100008006118484489B280B290470CE0D9455F
:10262000D9DA0BFB05FA0BFB08F004FB0A0A387831
:10263000C107CA44E8D5F068B16941F82A0009F138
:102640000109387840083870E9E7BDE8F78F0000E5
:1026500090110020B00F0020280C0020000400483A
:10266000B51100202DE9FC4180466846BBA1B54D5F
:10267000062200F003FD05F5077005210026017212
:102680000660C0F804D0FFF75EFF05F51070AE4B92
:10269000B0F91C104278A9816A802E7605F5117771
:1026A000017829801E711D6001261E749F606426BA
:1026B00011FB06F1018312FB06F24283012114266D
:1026C0000124242206FB01F04A43AF181F501F1DAE
:1026D0003C5405F11807BC5401EB41022A4402F2B4
:1026E000A52C03F10C02491C42F800C00629E8DBC6
:1026F0000027F9B271435A58B2F90C00B0F59E7F29
:1027000007DA4FF02D0C90FBFCFC2D2404FB1C0081
:1027100008B1002090814FF05A0E1088D0815A24C1
:1027200050881082B2F90C00D08284469CFBFEFED9
:1027300004FB1ECCBCF1000F18BF4FF0010C03F1DD
:10274000040E5A281EF801400CEB4404E4B205EBD9
:10275000440404F51874B4F800C0A2F804C0B4F836
:102760001CE018BF872806D0B0F5877F1CBF40F259
:102770003B14A04201D1704601E06046F44650810E
:10278000A2F806E0A2F808C07F1C50899082108948
:102790005082181D415C05EB8101D1F8A002117E29
:1027A000D06105EB8100F9B2D0F89802106288453B
:1027B0009FD2BDE8F3812DE9F04100261424624D3B
:1027C000F0B26043284400F041F8761CF0B20F28C4
:1027D000F6DB5E4E002704FB07F005EB000898F8D7
:1027E0000410012902BF05F11002105C01280AD172
:1027F0002946404600F020FE28B13088401C308039
:10280000404600F0DCFE7F1C0F2FE4DB002600F0CA
:1028100017F810B1681800F034F8761CF0B20F28E1
:10282000F5DB00F072FC002600F00AF810B1681821
:1028300000F062F8761CF0B20F28F5DBBDE8F081FD
:10284000F1B2614305F11002505C704702680179F2
:1028500031B93F49B1F90220B1F9001000F0E3BEEF
:10286000012908BF00F07FBE508894280CBF0020CB
:10287000401C5080108874280CBF0020401C108021
:10288000704770B501790468012918D1C068314BCF
:1028900041781D784A1CAA4208BF002102D0491C79
:1028A000D2B22AB982780B2A0CBF0022521C827045
:1028B0004170236A82785968186800F041FE264DFD
:1028C0002146284600F0C7FC208862882189668955
:1028D000891836184B1E711EDBB2D2B2C9B2C0B213
:1028E000FFF78CFD6089218910FB01F12846BDE8C6
:1028F000704089B2FFF7E9BD006801884288C18154
:1029000002828189C182704770B50024124D002671
:10291000A1B2B0B200F028FFB1B245F82100761C98
:10292000B0B2A028F4DB9F230022E1B2E0B2FFF7AF
:1029300065FDA0212846FFF7C8FD641CA0B28028D1
:10294000E5DB70BD80040020800E0020A611002071
:10295000B0110020040900200809002048656C6CB3
:102960006F000000024632480178012900D070470C
:10297000F8B5002303702F4B1C78596803F10C0540
:10298000204645F8201003EB800099680162042C72
:1029900008BF002402D0641CE0B208B901215970BC
:1029A00000205978A1B10021002542F8201003F140
:1029B0000C0600EB800757FA85F756F8276031447C
:1029C0006D1CEEB2052EF0DB0525B1FBF5F104E040
:1029D00003F10801E6B251F8261042F82010401C1D
:1029E0000128DEDD1C70191DBDE8F840022201E05F
:1029F000022211491148FEF717B938B50446104DA7
:102A00002846FFF7AFFF2968A1F5FA61218009B2D6
:102A10006868A0F5FA6063316080C7293CBF002177
:102A2000218000B26330C7283CBF0020608031BDE8
:102A3000B6110020441100204811002098100020F9
:102A4000A811002038B504460D4600F00BF82D1BE8
:102A50004FF0FF316D1CB1FBF5F2521CB0FBF2F0F0
:102A6000001932BD2D49086840F0040008604A682A
:102A700007E04868800880004860486840084000D7
:102A800048604868C0F341100028F2D14868C20786
:102A9000EFD5086820F004000860886870472DE9C9
:102AA000F04100F041F8B528ACBF012100215A28BF
:102AB00016BFB0F5877F012700270DE02DE9F04113
:102AC00000F032F8A0F15B01B3298941C90F02007F
:102AD00016BFB4280127002781F00100401A00F03A
:102AE00057FE04460D46F0B200F064FE0C4A0D4B52
:102AF00000F06EFE06468846384600F05BFE324621
:102B0000434600F03BFF22462B4600F061FE01F0F9
:102B10005DF800EE100ABDE8F081000000080650E4
:102B20001B0DE02D90A0E63F0026861906F0FE065C
:102B3000861B704791ED000AD2ED000A91ED011A53
:102B400060EE200A92ED010A41EE000AC0ED000A93
:102B5000D1ED020A92ED001A91ED030A20EE811ADE
:102B6000D2ED010A00EE201A80ED011A7047000034
:102B70000248016841F480710160704700700040B4
:102B80002DE9FC47064600243068DFF83073010564
:102B9000A0461BD5F06B58B1B0F5000F03D0B0F5CF
:102BA000400F09D010E03A6842F480323A6004E005
:102BB000002100F0FCF804463CB9F96FF06B21F4F9
:102BC00040010143F96701E00124A0463068810318
:102BD0002AD5F86CC1004FF000090AD4F86C40F017
:102BE0008050F8644FF00109F86C00F080500090BC
:102BF0000098DFF8CC52286840F480702860FDF718
:102C00007FFE82462868C1055FD4FDF779FEA0EB00
:102C10000A000328F6D30324A046B9F1000F03D01D
:102C2000F86C20F08050F8643078C10705D5FA6F51
:102C3000306A920840EA8202FA673178880705D53F
:102C4000F96F706A21F00C010143F9673178880649
:102C500005D5F96FB06A21F440610143F967316825
:102C6000880505D5F96F706B21F440210143F967A0
:102C70003168480505D5F96FB06B21F44011014367
:102C8000F9673178480605D5F96FF06A21F44051AB
:102C90000143F9673168C80505D5F96F306B21F438
:102CA00040310143F9673168880446D5F96F306CCB
:102CB00021F040610143F967306CB0F1006F34D10D
:102CC000386840F48010386037E0002CA4D1DFF879
:102CD000F441206810F440701CBF316D88420BD065
:102CE0002068216841F48031216020F4407022681E
:102CF00022F4803222602060C0070FD5FDF700FE6D
:102D000005462068810709D4FDF7FAFD401B41F212
:102D100089318842F5D34FF003087EE72168306D92
:102D200021F440710143216077E7B0F1806F04D155
:102D300000F03CF8010018BF80463068410316D50A
:102D4000FA6F706C22F040620243FA67706CB0F167
:102D5000006F04D1386840F48010386007E0B0F1AB
:102D6000806F04D100F022F8010018BF804630685F
:102D700041040FD5FA6FB06C22F040520243FA675B
:102D8000B16CB1F1805F05D1022100F010F80100B3
:102D900018BF80463068010405D5FA6FF06C22F048
:102DA00080420243FA674046BDE8F6870121301DA4
:102DB00005E04548016841F00401016070472DE9D4
:102DC000F0410546404F28680C46F968002611F08E
:102DD000030F0DD0F96801F00301814237D1B0B380
:102DE000F8686968C0F30210401C884213D02EE0D6
:102DF000012804D02BD3032823D01ED327E03A6820
:102E0000910724D5FA68696822F073021043491EBD
:102E100040EA0110F860386820F080603860FDF703
:102E20006FFD80463868010113D5FDF769FDA0EB01
:102E300008000328F6D303263BE039684A05E1D4AD
:102E400005E039688A03DDD439684A03DAD40126FB
:102E50002FE0A96844B93A691C48EB68024042EA8D
:102E6000012141EAC3610FE0012C3A6906D12B69C7
:102E7000174800F031F841EA435105E06B69154805
:102E800000F02AF841EA43613961386840F0806017
:102E90003860FDF735FD04463868010105D4FDF7BB
:102EA0002FFD001B0328F7D3C5E73869A96908433C
:102EB00038613046BDE8F081000000000C1002408F
:102EC000007000409010024000100240FF80FF0799
:102ED000FF809FFFFF80FFF902405B0842EA01216B
:102EE0005B1E704738B50446FDF70AFD14F1010F6B
:102EF000054602D0044988680419FDF701FD401B0E
:102F0000A042FAD331BD00BFF408002062F30F22C3
:102F100062F31F42401810F0030308D0C91A1FD3F0
:102F2000DB0748BF00F8012D28BF20F8022D130051
:102F300030B414461546103928BF20E93C00FAD8B1
:102F4000490728BF20E90C0048BF40F8042D89003C
:102F500028BF20F8022D48BF00F8012D30BC704773
:102F6000C91818BF00F8012DCB0728BF00F8012DA4
:102F700070470000D3BBD9B1B2F5803F5BD2022AC3
:102F80001ED98C46B1FBF2F102FB11C31B0443EACC
:102F90001043B3FBF2FC02FB1C3380B240EA034354
:102FA000B3FBF2F002FB103240EA0C400023704702
:102FB000022A05D98446B0FBF2F002FB10C270472A
:102FC0004AB105D100F0010249085FEA30007047BC
:102FD00000220023704700F02DBE0B0002000021EC
:102FE00000207047F7D3002200237047904271EB16
:102FF000030CF2D370B5B1FA81F4B3FA83F52C1B4C
:10300000A340C4F1200532FA05F63343A2405FF035
:103010000046E64002E05B085FEA3202841A71EB88
:10302000030524BF204629467641F4D302000B0055
:103030003000002170BD70B5B1FA81F4B2FA82F5AA
:10304000C4F120046419B4F12006DAD3B2405FF071
:103050000044F440002502E052085FEA3303C61A38
:1030600071EB020E24BF3046714664416D41F3D3CB
:1030700002000B002000290070BD00004AB10000D2
:1030800011F8013B521E00F8013B1CBF11F8013B37
:10309000F8E7704700F068BB2DE9F84F8246894693
:1030A00014461D46A9EB0A00291B401C491C10FBB5
:1030B00001F0ADF8000000262746DFF884810FE01C
:1030C000B9B2FFF7E7FFB1B248F82100761C0BF167
:1030D000010B1FFA8BF009F101018842F0DB7F1C24
:1030E000B8B2691C8842B8BFD346F2DBEBB2E2B299
:1030F0005FFA89F15FFA8AF0FFF780F9BDF80010F6
:103100004046BDE8F44FFFF7E0B92DE9F84F002540
:10311000DFF830B1E9B214230BF1100213FB01F315
:10312000D05C002869D02420474A41435618F189D1
:103130003288914214BF01240024308A7188884269
:1031400014BF01270027F0899042308A328968EB4A
:103150000808884269EB090951184FEAD8784FEA04
:10316000D9798142A2BF8018718888420ADBF1892F
:103170007289308852188242A1BF71894018F28941
:1031800090420EDAE8B200904FF0010A318A30899D
:10319000328A4118F0894B1E7189084400F056F8B4
:1031A00001E04FF0000A8AF0010A14EA0A0F22D067
:1031B000E9B20091B6F80EC07489328A318988F07C
:1031C000010064448646B6F80EC08A18318811FBA7
:1031D00008F114FB0E1E7489531E328AAEF10101F0
:1031E000B6F800E07444604308FB0C009BB289B25F
:1031F00080B2FFF751FF17EA0A0F19D0E9B2009128
:1032000089F0010037897288318A338912FB09F20B
:10321000591811FB0022318A531E7288BF18784357
:1032200009FB010082B2F0897189081800F00EF8DC
:103230006D1CE8B20E287FF76DAFBDE8F18F00007E
:1032400008090020800E002080040020411EF08923
:103250009BB289B220E72DE9FE4F0B468646B3F9B3
:103260000C00B0F59E7F06DA2D2290FBF2F22D21A4
:1032700001FB120008B15A2098815E891A89B3F9BE
:103280000C409E80DA805A2C18BF872C06D0B4F5EB
:10329000877F1CBF40F23B10844201D15A811E81BE
:1032A0005A2094FBF0F05A2101FB104000B1042099
:1032B000196A51F800902D2094FBF0F000EBD070CB
:1032C000C005000E002101283AD14FF0010800246A
:1032D000571EA6F1010C7C43032808FB0C4834D18F
:1032E0000124002505FB0CF504FB07570328019773
:1032F00030D101240027002516FB04F412FB0744FB
:10330000651B2DB2009580BB01248C46002716FB5F
:1033100004F412FB0C42D71B01283FB24FF0FF32DE
:1033200030D11446012200EBD0756D08A0EB450C9E
:1033300000F0010080F001050FFA88F8704644E0C3
:1033400002288846C3D10124C2E700240228C8D13C
:103350000125C7E7002408B90127CCE70027012889
:1033600018BF0228C7D10125C6E70024012808BFDD
:103370004FF0010CCAD08C46032818BF0228C5D1D3
:103380000127C4E7022808BF1446CCD00124022834
:10339000C8DBC8E718FB05FA18FB0CFB1EFB0CAAE0
:1033A0001EFB05BB1FFA8AFA1FFA8BFB06FB0ABA43
:1033B0001FFA81FB19F80AA040F82BA0491C96447B
:1033C0000FFA8EFABA45E5D1A044DDF800A00FFA55
:1033D00088FED64504D00DF1040EBEF900E0EFE7FB
:1033E000002603E0761C20462B46B6B219898E4291
:1033F00020DA002704461D4603E0E96951F8200061
:1034000013E0B5F80A804745ECDA08FB06781FFAA6
:1034100088F854F828000028EFD1698828887118A6
:10342000381889B280B2FFF735FE44F828007F1CB7
:10343000BFB2E6E7BDE8F78F2DE9FC4FD0F800E01A
:103440000D68BEF800602F88B74234BF34463C4652
:10345000BEF802006988814234BFADF80200ADF8C1
:103460000210BEF80A20ADF80020B0466A89BDF807
:1034700000B01346B94603EB090AC344DA4503DA40
:10348000D719BFB2019705E0BDF800209619761E46
:10349000B6B20196BEF80820B5F808C006460F4639
:1034A00007EB0C0A06EB020BDA45B2BF61441018B9
:1034B000411EBEF90CC05A2082469CFBFAFA00223B
:1034C00000FB1ACC89B2BCF1000F18BF4FF0040CFE
:1034D000DEF820E05EF80CC0B5F90CE082469EFBF9
:1034E000FAFA00FB1AE000B104202D6ABDF800B022
:1034F00028581BE00AF101051FFA85FA514513DB34
:10350000A4EB080E0BFB0EAEAEEB060E1CF80E5035
:10351000002DEFD0A4EB090E03FB0EAEAEEB0705BA
:10352000455D002DE6D00122641CA4B2019DA54298
:1035300003DB12B9BDF802A0E0E71046BDE8F68F44
:10354000F0B500240C27035D4BB10D5DAB185B1E7D
:103550000C2693FBF6F607FB16335B1C0355641C25
:10356000192CF0DBF0BD10B50446207C012825D0D5
:103570004FF47A610020FFF765FA1C490A78C2F11E
:10358000060290421AD20120207405200A78521CAB
:103590000A706921FFF756FA216808808721052003
:1035A000FFF750FA2168488008884A88C8810A8253
:1035B0000C210120FFF746FAE168887010BD38B58C
:1035C000002101740124016808480278531E037029
:1035D0004A88088800940D894989AD1809186B1E1E
:1035E000491E9BB289B2FFF757FD31BDB4110020CF
:1035F000B0F90020002A48BF002205D442F6ED436E
:103600009A4202DB42F6EC420280B1F90000002847
:1036100048BF002005D443F66D12904202DB43F60A
:103620006C1008807047F8B586B00468856800EEB5
:10363000101A00EE902AB8EEC00AF8EEE00A8DEDFE
:10364000000ACDED010A6A4640492846FFF772FAA2
:10365000B5F90A00D5ED010A00F081F870EE200AF4
:10366000FDEEE00AB5F9080010EE901A698100F04D
:1036700076F8D5ED000A00F06BF8298102AFA68933
:103680003046FFF70CFA8DED020A3046FFF716FAC6
:1036900087ED010A3046FFF711FA87ED020A30463E
:1036A000FFF7FDF9B1EE400A87ED030A2A4602A9A9
:1036B00005F10C00FFF73EFAB5F91400D5ED030A49
:1036C00000F04DF8B5F9160070EE200AFDEEE00AA4
:1036D00000EE100A10EE901AB8EEC00AD5ED040AFA
:1036E000A98200F035F8E98205F1140005F1160110
:1036F000FFF77EFFB5F91400642190FBF1F1218002
:103700006420B5F9162092FBF0F06080B5F908004E
:1037100000F16401C92917D36428B4BF5A200020DE
:10372000B4F9161040182D386FF02C0302B29A42EB
:1037300008BF40F23B1001B2B1F5B47F08BF0020D2
:10374000A08100202881688107B0F0BDE408002036
:1037500070EE200AFDEEE00A10EE901A704700EEBF
:10376000100AB8EEC00A7047084A137891FBF3F1CB
:1037700001F0010190FBF3F081F00101C30758BF94
:1037800081F0010102EB81004068704700000020D9
:1037900010F0004160B148BF4042B0FA80F2904062
:1037A000D21CC2F5846241EA025202EBD0214005EC
:1037B0007047000050B1B0FA80F18840C91CC1F5D3
:1037C0008461090501EBD02140057047014670472F
:1037D00030B540F2FF7C1CEA11541DBF1CEA1355A2
:1037E000644565453FE0641981EA030C6FF35F535C
:1037F0000CF0004C43F48013C90241F0004141EA4F
:10380000505EC5021100A5FB020200284FF0000027
:10381000EEFB01204FF00001E3FB052118BF42F051
:103820000102401800214941E3FB0E01A4F5806428
:103830000D0302D292184041494154F1010470DD58
:10384000450872F1004250F1000051EB0451A1F51E
:10385000801102D441EA0C0130BD40F2FF7E4CEAF7
:103860000E51002030BD0CEA1355644518BF654564
:1038700081EA030C0CF0004C41D050EA410E1CBF11
:1038800052EA430E02E06146002030BD24422C443F
:103890001BD15FEA050EF6D0090302BF01460020E6
:1038A000AEF1140EB1FA81F5AEEB050401FA05FE96
:1038B0000C35C5F1200100FA05F5C8404EEA000EAE
:1038C0006FF35F5343F480139CE733F00043B3FA84
:1038D00083F504BFB2FA82FE75440B3D641BB5F15B
:1038E000200E2FBF02FA0EF3AB40C5F1200E22FAD4
:1038F0000EFE38BF43EA0E03AA40641C7CE750EA80
:10390000410E14BF52EA430E6FF000014FF4001550
:1039100015EB430F8EBF194615EB410F9DE7B4D849
:1039200030BDD4F10104B4F120050FDAC4F1200553
:10393000520828BF42F0010210FA05FE01FA05F50F
:103940007244E2BFE0402843E1400FE0352C9ADCAE
:10395000C5F1200452EA400220FA05F218BF42F0F5
:10396000010231FA05F0A1400A43002172F1004240
:1039700050F1000051EB0C0130BD000070B491EA31
:10398000030F4FF0004540F1B7806B40841A71EB94
:10399000030604D26E40001BB141121973414FF46B
:1039A000001C1CEB410F34BF7CEB430683E00C0D85
:1039B000A4EB1356362E00F37C80012E45EAC32378
:1039C00041DC43EA525312BFD20292025B08240543
:1039D00045EAC12141EA5051D2EBC020994125D49A
:1039E00007D1B0FA80F610FA06F162D00020203636
:1039F00008E0B1FA81F6B140C6F1200220FA02F2E5
:103A00001143B0404FEAF474B4EB465434F001066D
:103A10004FEA74040AD8D6F50016760D04F0004477
:103A2000F04061FA06F25040F1404840C00A40EAD6
:103A3000415021F0004128BF5FEA500550F10000DD
:103A400044EBD12135E0DB0A45EAC121C90AB6F1D0
:103A500020050EDD42EA0242120CC5F1200603FAEF
:103A600006F6EB4042EA06056D42984161F100011D
:103A70000DE062FA06F5F240554063FA06FC82EA70
:103A80000C02F3405A406D42904161EB030111F486
:103A9000801F05D1641E620502D06D00404149417E
:103AA00021F48011430875F1004350F1000041EB0F
:103AB000045170BC70471CEB410F15D223F000433A
:103AC00052EA43060BD04FEA4C0CBCEB410F04D832
:103AD0000C0D661E342EB7DDEBE7801A994150EAD3
:103AE000410608BF0021E4E708BF1CEB430F28BFD5
:103AF0006FF00001DDE70000841A71EB030603D2CA
:103B0000001BB141121973414FF4001C1CEB410F13
:103B100034BF7CEB430442E00C0DA4EB1356352E6E
:103B20004FDC45EAC323DB0A45EAC121C912B6F1DD
:103B300020050DDD63FA05F6EB4086EA0305124227
:103B400018BF45F00105C01851F100010CD213E077
:103B500062FA06F5F2405540F3415A40B340F34053
:103B60005A408018594107D349085FEA30005FEA9C
:103B7000350528BF45F0010501F58011420875F1B2
:103B8000004250F1000041EB04514E0016F5001FB9
:103B900070BC38BF70470020090D090570471CEB49
:103BA000410F10D252EA43060BD0BCEB410F05D8AF
:103BB0000C0DAB43661E342EB6DD02E0AB4380181D
:103BC000594170BC704770BC7047000001F0004262
:103BD0008B1AA3F16051B1F5801F0ADBB1F17F6F41
:103BE0001FD242EAC102C10071F1004142EB5070A4
:103BF00070470B15C3F10903212B10D2890241EA4A
:103C0000905180020128494141F0004121FA03F01E
:103C1000C3F12003994071F10041504170471000F9
:103C200070476FF0000013EB103F5CBF000E42EADC
:103C3000C0507047704700007047FEE7FEE7FEE7A0
:103C4000FEE77047704770472DE9F04100F05AF8E1
:103C500029490D894E8A4C898889CA890B8A6D1C2D
:103C600006F10108641C401C521C5B1CAEB2032E02
:103C700002D101250D70002527460D81A4B20A2C22
:103C8000844696461D46464602D101274F700027BE
:103C900080B2192803D1012088704FF0000C92B235
:103CA000642A03D10120C8704FF0000E9BB2B3F517
:103CB000FA7F02D10120087100251FFA88F0B0F5C3
:103CC0007A7F02D1012048710026887910B1888A54
:103CD000401C88824E820D824F81A1F80EE0A1F82F
:103CE0000CC0BDE8F08180B50448FDF707FC04482E
:103CF0000121017001BD000078110020FC1000209E
:103D0000B611002002490A68886882180A60704764
:103D1000F40800200E48016841F47001016000229F
:103D20000C49086840F0010008608A604FF4805236
:103D30000B68094803400B60CA6000200B68074A03
:103D400023F480230B6088614FF00061116070479D
:103D500088ED00E000100240FFFFF6EA08ED00E009
:103D6000000000000000000001020304060708092B
:103D700030B4002512E050F8042BD30744BF4A4466
:103D8000521E091F042942F8045BFAD213468C071D
:103D900044BF15809B1CC90748BF1D7050F8041B09
:103DA0000029E8D130BC7047A0860100400D030017
:103DB000801A060000350C0040420F0080841E006F
:103DC00000093D0000127A000024F40000366E0164
:103DD0000048E801006CDC0210B50749794418314D
:103DE000064C7C44163404E00A68081D11448847D8
:103DF0000146A142F8D110BD2C000000480000008F
:103E00004EF68851CEF20001086840F47000086058
:103E1000BFF34F8FBFF36F8F4FF00170E1EE100AC9
:103E2000704700004DFFFFFFB008000008090020A8
:103E3000000000003FD3FFFF74010000FC060000FB
:103E40000000002000F00DF8002801D0FFF7C4FFAB
:103E5000AFF300800020AFF30080FDF7A3FC00F07B
:103E600002F80120704700F001B80000074638460C
:103E700000F002F8FBE7000080B5AFF30080024AD3
:103E800011001820ABBEFBE72600020005480146E2
:103E900003B4684680F30988AFF30080FFF7B0FFF2
:103EA000FFF7D0FFA5EDF5FE014880470148004728
:103EB000153D00088D3E00080000000001020304CB
:103EC000FFF7FEBFFFF7FEBFFFF7FEBFFFF7FEBF26
:103ED000FFF7FEBFFFF7FEBFFFF7FEBFFFF7FEBF16
:103EE000FFF7FEBFFFF7FEBFFFF7FEBFFFF7FEBF06
:103EF000FFF7FEBFFFF7FEBFFFF7FEBFFFF7FEBFF6
:103F0000FFF7FEBFFFF7FEBFFFF7FEBFFFF7FEBFE5
:103F1000FFF7FEBFFFF7FEBFFFF7FEBFFFF7FEBFD5
:103F2000FFF7FEBFFFF7FEBFFFF7FEBFFFF7FEBFC5
:103F3000FFF7FEBFFFF7FEBFFFF7FEBFFFF7FEBFB5
:103F4000FFF7FEBFFFF7FEBFFFF7FEBFFFF7FEBFA5
:103F5000FFF7FEBFFFF7FEBFFFF7FEBFFFF7FEBF95
:103F6000FFF7FEBFFFF7FEBFFFF7FEBFFFF7FEBF85
:103F7000FFF7FEBFFFF7FEBFFFF7FEBFFFF7FEBF75
:103F8000FFF7FEBFFFF7FEBFFFF7FEBFFFF7FEBF65
:103F9000FFF7FEBFFFF7FEBFFFF7FEBFFFF7FEBF55
:103FA000FFF7FEBFFFF7FEBFFFF7FEBF10070400DD
:103FB0000000FCFCFC00FC082001F8F8F80E1001E1
:103FC00000007A041114F0010300FC7A0F110412AE
:103FD0007A044106201608080706060807070605A2
:103FE000010100050501020304040202030358F164
:103FF0000B1C1003400000205C04F2F60001440892
:10400000183C3C1818001800363612100136367F5E
:1040100002301B36000C3E031E301F0C00006333C1
:10402000180C6663001C361C6E3B336E00060603DC
:10403000291006180C0606060C18000412180C109D
:10404000050000663CFF3C661B54030C0C3F0C0C47
:104050005E220C1977003F6C11191360302E100C82
:104060000301003E63737B6F673E000C0E0C014042
:10407000063F001E33301C063308200E30331E006E
:10408000383C36337F3078003F031F301010031C5C
:1040900006031F3308133F33411148121E0D211030
:1040A000110530023E30180E5C910422066621A0F4
:1040B000317F1103110C217A21601002180C000CC1
:1040C0008010057B7B7B031E000C4140213F333376
:1040D000003F66663E66663F003C66030303663C3F
:1040E000001F36666666361F007F46161E16467F20
:1040F0000833060F20300373667C00333720023309
:10410000001E0C0110021E007830A71190140767E2
:1041100066361E366667000F1F100F46667F006307
:10412000777F7F6B63630063676F7B730830051C69
:1041300036636363361C70120650117F3002333BC6
:104140001E3810213820031E33070E38E8222D595F
:10415000221E681101423F0810011E0C003E100192
:104160006B7F77501145114C2118118310051E00EB
:104170007F6331184C70231E0601231E00FD2004AE
:10418000306040001E180120011E00082D810137FB
:10419000FF0C1C210114011E303ED81D32031500F6
:1041A000123B1424011E3303801230171118211002
:1041B000163F2810011C3606D3120F10266E7210FF
:1041C000041F0706366E66B0270C00C144021E00AD
:1041D000300001270706013267162118240100006C
:1041E0003301110815BF1530215025282401000086
:1041F0003B02520F50127810336E666039792005F9
:1042000000080C3E0C0C2CA42137426E0815001936
:104210009128016B7F7FAD436336D332339015E530
:10422000100B190C263F00380C0C070C0C3800F74B
:104230003104210D1113F002FF006E3B0001F1FF6C
:1042400001F108011C0495300008070858061C02FB
:10425000090020803C0612800CFB0D323250120EF9
:1042600002F2020502120302F10B1C1C02DC080020
:10427000200D03FC040220380700200CA8062D2C7A
:10428000074C0D040404001C289C0000CC000028EE
:10429000281C2507F30000A8911E01FF066106D126
:1042A0000E820601A2000E2305050E1202018306EE
:1042B000060E1203012110F1030EA12A6101C10EA5
:1042C0002162F10B8CF10201330101444101D20161
:1042D0000E417C41015166411F210D219A53050574
:1042E000264203A921414306020D12010132060EA6
:1042F000410D31413202C5930101B64161610F5157
:104300006F414D71B4B30606C2711B1654BC16182A
:10431000C87C016F1203760420028FC2F53C0C2288
:0A43200010F821090002093D000514
:0400000508003E8D24
:00000001FF
